{
  "contractName": "LetterProposal",
  "abi": [
    {
      "inputs": [
        {
          "internalType": "address",
          "name": "registrationAddress",
          "type": "address"
        }
      ],
      "stateMutability": "nonpayable",
      "type": "constructor"
    },
    {
      "anonymous": false,
      "inputs": [
        {
          "indexed": false,
          "internalType": "uint256",
          "name": "letterID",
          "type": "uint256"
        },
        {
          "indexed": false,
          "internalType": "address",
          "name": "student",
          "type": "address"
        },
        {
          "indexed": false,
          "internalType": "address",
          "name": "teacher",
          "type": "address"
        },
        {
          "indexed": false,
          "internalType": "uint256",
          "name": "addedDate",
          "type": "uint256"
        }
      ],
      "name": "LetterAdded",
      "type": "event"
    },
    {
      "anonymous": false,
      "inputs": [
        {
          "indexed": false,
          "internalType": "uint256",
          "name": "letterID",
          "type": "uint256"
        },
        {
          "indexed": false,
          "internalType": "address",
          "name": "student",
          "type": "address"
        },
        {
          "indexed": false,
          "internalType": "address",
          "name": "teacher",
          "type": "address"
        },
        {
          "indexed": false,
          "internalType": "uint256",
          "name": "admittedDate",
          "type": "uint256"
        }
      ],
      "name": "LetterAdmitted",
      "type": "event"
    },
    {
      "anonymous": false,
      "inputs": [
        {
          "indexed": false,
          "internalType": "uint256",
          "name": "letterID",
          "type": "uint256"
        },
        {
          "indexed": false,
          "internalType": "address",
          "name": "student",
          "type": "address"
        },
        {
          "indexed": false,
          "internalType": "address",
          "name": "teacher",
          "type": "address"
        }
      ],
      "name": "LetterCreated",
      "type": "event"
    },
    {
      "anonymous": false,
      "inputs": [
        {
          "indexed": false,
          "internalType": "uint256",
          "name": "letterID",
          "type": "uint256"
        },
        {
          "indexed": false,
          "internalType": "address",
          "name": "student",
          "type": "address"
        },
        {
          "indexed": false,
          "internalType": "address",
          "name": "teacher",
          "type": "address"
        },
        {
          "indexed": false,
          "internalType": "uint256",
          "name": "evaluatedDate",
          "type": "uint256"
        }
      ],
      "name": "LetterEvaluated",
      "type": "event"
    },
    {
      "anonymous": false,
      "inputs": [
        {
          "indexed": false,
          "internalType": "uint256",
          "name": "letterID",
          "type": "uint256"
        },
        {
          "indexed": false,
          "internalType": "address",
          "name": "student",
          "type": "address"
        },
        {
          "indexed": false,
          "internalType": "address",
          "name": "teacher",
          "type": "address"
        },
        {
          "indexed": false,
          "internalType": "string",
          "name": "rejectReason",
          "type": "string"
        },
        {
          "indexed": false,
          "internalType": "uint256",
          "name": "rejectedDate",
          "type": "uint256"
        }
      ],
      "name": "LetterRejected",
      "type": "event"
    },
    {
      "anonymous": false,
      "inputs": [
        {
          "indexed": false,
          "internalType": "uint256",
          "name": "letterID",
          "type": "uint256"
        },
        {
          "indexed": false,
          "internalType": "address",
          "name": "student",
          "type": "address"
        },
        {
          "indexed": false,
          "internalType": "address",
          "name": "teacher",
          "type": "address"
        },
        {
          "indexed": false,
          "internalType": "address",
          "name": "company",
          "type": "address"
        },
        {
          "indexed": false,
          "internalType": "uint256",
          "name": "seenDate",
          "type": "uint256"
        }
      ],
      "name": "LetterSeenByCompany",
      "type": "event"
    },
    {
      "inputs": [],
      "name": "letterID",
      "outputs": [
        {
          "internalType": "uint256",
          "name": "",
          "type": "uint256"
        }
      ],
      "stateMutability": "view",
      "type": "function"
    },
    {
      "inputs": [
        {
          "internalType": "uint256",
          "name": "",
          "type": "uint256"
        }
      ],
      "name": "referenceLetters",
      "outputs": [
        {
          "internalType": "address",
          "name": "student",
          "type": "address"
        },
        {
          "internalType": "address",
          "name": "teacher",
          "type": "address"
        },
        {
          "internalType": "address",
          "name": "company",
          "type": "address"
        },
        {
          "internalType": "string",
          "name": "proposalDescription",
          "type": "string"
        },
        {
          "internalType": "enum LetterProposal.status",
          "name": "letterStatus",
          "type": "uint8"
        },
        {
          "components": [
            {
              "internalType": "bytes32",
              "name": "letterHash",
              "type": "bytes32"
            },
            {
              "internalType": "uint256",
              "name": "writtenDate",
              "type": "uint256"
            }
          ],
          "internalType": "struct LetterProposal.LetterDocument",
          "name": "letterDocument",
          "type": "tuple"
        }
      ],
      "stateMutability": "view",
      "type": "function"
    },
    {
      "inputs": [
        {
          "internalType": "address",
          "name": "_teacherAddress",
          "type": "address"
        },
        {
          "internalType": "address",
          "name": "_companyAddress",
          "type": "address"
        },
        {
          "internalType": "string",
          "name": "_proposalDescription",
          "type": "string"
        }
      ],
      "name": "newLetterProposal",
      "outputs": [],
      "stateMutability": "nonpayable",
      "type": "function"
    },
    {
      "inputs": [
        {
          "internalType": "uint256",
          "name": "_letterID",
          "type": "uint256"
        }
      ],
      "name": "letterFirstEvaluate",
      "outputs": [
        {
          "internalType": "string",
          "name": "",
          "type": "string"
        }
      ],
      "stateMutability": "nonpayable",
      "type": "function"
    },
    {
      "inputs": [
        {
          "internalType": "uint256",
          "name": "_letterID",
          "type": "uint256"
        },
        {
          "internalType": "bool",
          "name": "accepted",
          "type": "bool"
        },
        {
          "internalType": "string",
          "name": "rejectReason",
          "type": "string"
        }
      ],
      "name": "letterAcceptOrReject",
      "outputs": [],
      "stateMutability": "nonpayable",
      "type": "function"
    },
    {
      "inputs": [
        {
          "internalType": "uint256",
          "name": "_letterID",
          "type": "uint256"
        },
        {
          "internalType": "bytes32",
          "name": "_letterHash",
          "type": "bytes32"
        }
      ],
      "name": "addLetter",
      "outputs": [],
      "stateMutability": "nonpayable",
      "type": "function"
    }
  ],
  "bytecode": "0x60806040523480156200001157600080fd5b50604051620020513803806200205183398181016040528101906200003791906200011e565b806000806101000a81548173ffffffffffffffffffffffffffffffffffffffff021916908373ffffffffffffffffffffffffffffffffffffffff1602179055503342306040516020016200008e93929190620001cf565b6040516020818303038152906040528051906020012060001c6001819055505062000212565b600080fd5b600073ffffffffffffffffffffffffffffffffffffffff82169050919050565b6000620000e682620000b9565b9050919050565b620000f881620000d9565b81146200010457600080fd5b50565b6000815190506200011881620000ed565b92915050565b600060208284031215620001375762000136620000b4565b5b6000620001478482850162000107565b91505092915050565b60008160601b9050919050565b60006200016a8262000150565b9050919050565b60006200017e826200015d565b9050919050565b6200019a6200019482620000d9565b62000171565b82525050565b6000819050919050565b6000819050919050565b620001c9620001c382620001a0565b620001aa565b82525050565b6000620001dd828662000185565b601482019150620001ef8285620001b4565b60208201915062000201828462000185565b601482019150819050949350505050565b611e2f80620002226000396000f3fe608060405234801561001057600080fd5b50600436106100625760003560e01c8063612e18f5146100675780637bcbf7c01461009c5780639fe49577146100ba578063d22905e6146100d6578063fe3cb09314610106578063ffd056ea14610122575b600080fd5b610081600480360381019061007c91906111f9565b61013e565b604051610093969594939291906113ce565b60405180910390f35b6100a461028d565b6040516100b19190611445565b60405180910390f35b6100d460048036038101906100cf91906115cd565b610293565b005b6100f060048036038101906100eb91906111f9565b610618565b6040516100fd919061163c565b60405180910390f35b610120600480360381019061011b919061168a565b61093c565b005b61013c60048036038101906101379190611725565b610e13565b005b60026020528060005260406000206000915090508060000160009054906101000a900473ffffffffffffffffffffffffffffffffffffffff16908060010160009054906101000a900473ffffffffffffffffffffffffffffffffffffffff16908060020160009054906101000a900473ffffffffffffffffffffffffffffffffffffffff16908060030180546101d390611794565b80601f01602080910402602001604051908101604052809291908181526020018280546101ff90611794565b801561024c5780601f106102215761010080835404028352916020019161024c565b820191906000526020600020905b81548152906001019060200180831161022f57829003601f168201915b5050505050908060040160009054906101000a900460ff16908060050160405180604001604052908160008201548152602001600182015481525050905086565b60015481565b60008054906101000a900473ffffffffffffffffffffffffffffffffffffffff1673ffffffffffffffffffffffffffffffffffffffff1663aec37eb3336040518263ffffffff1660e01b81526004016102ec91906117c5565b602060405180830381865afa158015610309573d6000803e3d6000fd5b505050506040513d601f19601f8201168201806040525081019061032d91906117f5565b61036c576040517f08c379a00000000000000000000000000000000000000000000000000000000081526004016103639061186e565b60405180910390fd5b3373ffffffffffffffffffffffffffffffffffffffff166002600085815260200190815260200160002060010160009054906101000a900473ffffffffffffffffffffffffffffffffffffffff1673ffffffffffffffffffffffffffffffffffffffff1614610410576040517f08c379a000000000000000000000000000000000000000000000000000000000815260040161040790611900565b60405180910390fd5b6000600481111561042457610423611300565b5b6002600085815260200190815260200160002060040160009054906101000a900460ff16600481111561045a57610459611300565b5b1461049a576040517f08c379a000000000000000000000000000000000000000000000000000000000815260040161049190611992565b60405180910390fd5b81156105595760016002600085815260200190815260200160002060040160006101000a81548160ff021916908360048111156104da576104d9611300565b5b02179055507f3b5e1de666723967fbdd95dd4c2c359769ab6fa1eed327c3fb4e9a53123bc0008360026000600154815260200190815260200160002060000160009054906101000a900473ffffffffffffffffffffffffffffffffffffffff16334260405161054c94939291906119b2565b60405180910390a1610613565b6002806000600154815260200190815260200160002060040160006101000a81548160ff0219169083600481111561059457610593611300565b5b02179055507f206a4a2110fab9a1b539a22b17781fa7c849034b2091f2815171e4a2438c50fd60015460026000600154815260200190815260200160002060000160009054906101000a900473ffffffffffffffffffffffffffffffffffffffff1633844260405161060a9594939291906119f7565b60405180910390a15b505050565b606060008054906101000a900473ffffffffffffffffffffffffffffffffffffffff1673ffffffffffffffffffffffffffffffffffffffff1663aec37eb3336040518263ffffffff1660e01b815260040161067391906117c5565b602060405180830381865afa158015610690573d6000803e3d6000fd5b505050506040513d601f19601f820116820180604052508101906106b491906117f5565b6106f3576040517f08c379a00000000000000000000000000000000000000000000000000000000081526004016106ea9061186e565b60405180910390fd5b6000600481111561070757610706611300565b5b6002600084815260200190815260200160002060040160009054906101000a900460ff16600481111561073d5761073c611300565b5b1461077d576040517f08c379a000000000000000000000000000000000000000000000000000000000815260040161077490611ac3565b60405180910390fd5b3373ffffffffffffffffffffffffffffffffffffffff166002600084815260200190815260200160002060010160009054906101000a900473ffffffffffffffffffffffffffffffffffffffff1673ffffffffffffffffffffffffffffffffffffffff1614610821576040517f08c379a000000000000000000000000000000000000000000000000000000000815260040161081890611b55565b60405180910390fd5b7f4218cf8b15fe219a8a21385e0e5ded40b1fd32855d7f5d2241db9f1ced38f06e8260026000600154815260200190815260200160002060000160009054906101000a900473ffffffffffffffffffffffffffffffffffffffff16334260405161088e94939291906119b2565b60405180910390a16002600083815260200190815260200160002060030180546108b790611794565b80601f01602080910402602001604051908101604052809291908181526020018280546108e390611794565b80156109305780601f1061090557610100808354040283529160200191610930565b820191906000526020600020905b81548152906001019060200180831161091357829003601f168201915b50505050509050919050565b60008054906101000a900473ffffffffffffffffffffffffffffffffffffffff1673ffffffffffffffffffffffffffffffffffffffff166382f7d392336040518263ffffffff1660e01b815260040161099591906117c5565b602060405180830381865afa1580156109b2573d6000803e3d6000fd5b505050506040513d601f19601f820116820180604052508101906109d691906117f5565b610a15576040517f08c379a0000000000000000000000000000000000000000000000000000000008152600401610a0c90611bc1565b60405180910390fd5b60008054906101000a900473ffffffffffffffffffffffffffffffffffffffff1673ffffffffffffffffffffffffffffffffffffffff1663aec37eb3846040518263ffffffff1660e01b8152600401610a6e91906117c5565b602060405180830381865afa158015610a8b573d6000803e3d6000fd5b505050506040513d601f19601f82011682018060405250810190610aaf91906117f5565b610aee576040517f08c379a0000000000000000000000000000000000000000000000000000000008152600401610ae590611c2d565b60405180910390fd5b60008054906101000a900473ffffffffffffffffffffffffffffffffffffffff1673ffffffffffffffffffffffffffffffffffffffff1663a0406ce2836040518263ffffffff1660e01b8152600401610b4791906117c5565b602060405180830381865afa158015610b64573d6000803e3d6000fd5b505050506040513d601f19601f82011682018060405250810190610b8891906117f5565b610bc7576040517f08c379a0000000000000000000000000000000000000000000000000000000008152600401610bbe90611c99565b60405180910390fd5b60016000815480929190610bda90611ce8565b91905055506040518060c001604052803373ffffffffffffffffffffffffffffffffffffffff1681526020018473ffffffffffffffffffffffffffffffffffffffff1681526020018373ffffffffffffffffffffffffffffffffffffffff16815260200182815260200160006004811115610c5857610c57611300565b5b815260200160405180604001604052806000801b81526020014281525081525060026000600154815260200190815260200160002060008201518160000160006101000a81548173ffffffffffffffffffffffffffffffffffffffff021916908373ffffffffffffffffffffffffffffffffffffffff16021790555060208201518160010160006101000a81548173ffffffffffffffffffffffffffffffffffffffff021916908373ffffffffffffffffffffffffffffffffffffffff16021790555060408201518160020160006101000a81548173ffffffffffffffffffffffffffffffffffffffff021916908373ffffffffffffffffffffffffffffffffffffffff1602179055506060820151816003019080519060200190610d7e92919061110c565b5060808201518160040160006101000a81548160ff02191690836004811115610daa57610da9611300565b5b021790555060a082015181600501600082015181600001556020820151816001015550509050507f75846bc0efc34af460e8d4d7a9d2632cb494a6344899a2f11a739745842ba2e86001543385604051610e0693929190611d30565b60405180910390a1505050565b60008054906101000a900473ffffffffffffffffffffffffffffffffffffffff1673ffffffffffffffffffffffffffffffffffffffff1663aec37eb3336040518263ffffffff1660e01b8152600401610e6c91906117c5565b602060405180830381865afa158015610e89573d6000803e3d6000fd5b505050506040513d601f19601f82011682018060405250810190610ead91906117f5565b610eec576040517f08c379a0000000000000000000000000000000000000000000000000000000008152600401610ee39061186e565b60405180910390fd5b3373ffffffffffffffffffffffffffffffffffffffff166002600084815260200190815260200160002060010160009054906101000a900473ffffffffffffffffffffffffffffffffffffffff1673ffffffffffffffffffffffffffffffffffffffff1614610f90576040517f08c379a0000000000000000000000000000000000000000000000000000000008152600401610f8790611900565b60405180910390fd5b60016004811115610fa457610fa3611300565b5b6002600084815260200190815260200160002060040160009054906101000a900460ff166004811115610fda57610fd9611300565b5b1461101a576040517f08c379a000000000000000000000000000000000000000000000000000000000815260040161101190611dd9565b60405180910390fd5b80600260008481526020019081526020016000206005016000018190555042600260008481526020019081526020016000206005016001018190555060036002600084815260200190815260200160002060040160006101000a81548160ff021916908360048111156110905761108f611300565b5b02179055507f392f1fd2cff454cd6fcd14f516c11a0400a83dd3e60dba0d23765ebc067bac9b826002600085815260200190815260200160002060000160009054906101000a900473ffffffffffffffffffffffffffffffffffffffff16334260405161110094939291906119b2565b60405180910390a15050565b82805461111890611794565b90600052602060002090601f01602090048101928261113a5760008555611181565b82601f1061115357805160ff1916838001178555611181565b82800160010185558215611181579182015b82811115611180578251825591602001919060010190611165565b5b50905061118e9190611192565b5090565b5b808211156111ab576000816000905550600101611193565b5090565b6000604051905090565b600080fd5b600080fd5b6000819050919050565b6111d6816111c3565b81146111e157600080fd5b50565b6000813590506111f3816111cd565b92915050565b60006020828403121561120f5761120e6111b9565b5b600061121d848285016111e4565b91505092915050565b600073ffffffffffffffffffffffffffffffffffffffff82169050919050565b600061125182611226565b9050919050565b61126181611246565b82525050565b600081519050919050565b600082825260208201905092915050565b60005b838110156112a1578082015181840152602081019050611286565b838111156112b0576000848401525b50505050565b6000601f19601f8301169050919050565b60006112d282611267565b6112dc8185611272565b93506112ec818560208601611283565b6112f5816112b6565b840191505092915050565b7f4e487b7100000000000000000000000000000000000000000000000000000000600052602160045260246000fd5b600581106113405761133f611300565b5b50565b60008190506113518261132f565b919050565b600061136182611343565b9050919050565b61137181611356565b82525050565b6000819050919050565b61138a81611377565b82525050565b611399816111c3565b82525050565b6040820160008201516113b56000850182611381565b5060208201516113c86020850182611390565b50505050565b600060e0820190506113e36000830189611258565b6113f06020830188611258565b6113fd6040830187611258565b818103606083015261140f81866112c7565b905061141e6080830185611368565b61142b60a083018461139f565b979650505050505050565b61143f816111c3565b82525050565b600060208201905061145a6000830184611436565b92915050565b60008115159050919050565b61147581611460565b811461148057600080fd5b50565b6000813590506114928161146c565b92915050565b600080fd5b600080fd5b7f4e487b7100000000000000000000000000000000000000000000000000000000600052604160045260246000fd5b6114da826112b6565b810181811067ffffffffffffffff821117156114f9576114f86114a2565b5b80604052505050565b600061150c6111af565b905061151882826114d1565b919050565b600067ffffffffffffffff821115611538576115376114a2565b5b611541826112b6565b9050602081019050919050565b82818337600083830152505050565b600061157061156b8461151d565b611502565b90508281526020810184848401111561158c5761158b61149d565b5b61159784828561154e565b509392505050565b600082601f8301126115b4576115b3611498565b5b81356115c484826020860161155d565b91505092915050565b6000806000606084860312156115e6576115e56111b9565b5b60006115f4868287016111e4565b935050602061160586828701611483565b925050604084013567ffffffffffffffff811115611626576116256111be565b5b6116328682870161159f565b9150509250925092565b6000602082019050818103600083015261165681846112c7565b905092915050565b61166781611246565b811461167257600080fd5b50565b6000813590506116848161165e565b92915050565b6000806000606084860312156116a3576116a26111b9565b5b60006116b186828701611675565b93505060206116c286828701611675565b925050604084013567ffffffffffffffff8111156116e3576116e26111be565b5b6116ef8682870161159f565b9150509250925092565b61170281611377565b811461170d57600080fd5b50565b60008135905061171f816116f9565b92915050565b6000806040838503121561173c5761173b6111b9565b5b600061174a858286016111e4565b925050602061175b85828601611710565b9150509250929050565b7f4e487b7100000000000000000000000000000000000000000000000000000000600052602260045260246000fd5b600060028204905060018216806117ac57607f821691505b6020821081036117bf576117be611765565b5b50919050565b60006020820190506117da6000830184611258565b92915050565b6000815190506117ef8161146c565b92915050565b60006020828403121561180b5761180a6111b9565b5b6000611819848285016117e0565b91505092915050565b7f42752069736c656d692074656163686572207961706162696c69722e00000000600082015250565b6000611858601c83611272565b915061186382611822565b602082019050919050565b600060208201905081810360008301526118878161184b565b9050919050565b7f59616c6e697a6361206b656e64696e697a65206174616e616e2062656c67657960008201527f6520756c61736162696c69727369696e697a0000000000000000000000000000602082015250565b60006118ea603283611272565b91506118f58261188e565b604082019050919050565b60006020820190508181036000830152611919816118dd565b9050919050565b7f7265666572616e73696e2079656e69206f6c7573747572756c6d75732064757260008201527f756d6461206f6c6d61736920676572656b697200000000000000000000000000602082015250565b600061197c603383611272565b915061198782611920565b604082019050919050565b600060208201905081810360008301526119ab8161196f565b9050919050565b60006080820190506119c76000830187611436565b6119d46020830186611258565b6119e16040830185611258565b6119ee6060830184611436565b95945050505050565b600060a082019050611a0c6000830188611436565b611a196020830187611258565b611a266040830186611258565b8181036060830152611a3881856112c7565b9050611a476080830184611436565b9695505050505050565b7f5265666572616e7320647572756d756e756e2043524541544544206f6c6d617360008201527f6920676572656b69720000000000000000000000000000000000000000000000602082015250565b6000611aad602983611272565b9150611ab882611a51565b604082019050919050565b60006020820190508181036000830152611adc81611aa0565b9050919050565b7f59616c6e697a6361206b656e64696e697a65206174616e616e2062656c67657960008201527f6520756c61736162696c697273696e697a000000000000000000000000000000602082015250565b6000611b3f603183611272565b9150611b4a82611ae3565b604082019050919050565b60006020820190508181036000830152611b6e81611b32565b9050919050565b7f42752069736c656d692073747564656e74207961706162696c69722e00000000600082015250565b6000611bab601c83611272565b9150611bb682611b75565b602082019050919050565b60006020820190508181036000830152611bda81611b9e565b9050919050565b7f546561636865722061646472657373206e6f74207265636f676e697a65642e00600082015250565b6000611c17601f83611272565b9150611c2282611be1565b602082019050919050565b60006020820190508181036000830152611c4681611c0a565b9050919050565b7f436f6d70616e792061646472657373206e6f74207265636f676e697a65642e00600082015250565b6000611c83601f83611272565b9150611c8e82611c4d565b602082019050919050565b60006020820190508181036000830152611cb281611c76565b9050919050565b7f4e487b7100000000000000000000000000000000000000000000000000000000600052601160045260246000fd5b6000611cf3826111c3565b91507fffffffffffffffffffffffffffffffffffffffffffffffffffffffffffffffff8203611d2557611d24611cb9565b5b600182019050919050565b6000606082019050611d456000830186611436565b611d526020830185611258565b611d5f6040830184611258565b949350505050565b7f7265666572616e73696e206b6162756c206564696c6d697320647572756d646160008201527f206f6c6d61736920676572656b69720000000000000000000000000000000000602082015250565b6000611dc3602f83611272565b9150611dce82611d67565b604082019050919050565b60006020820190508181036000830152611df281611db6565b905091905056fea2646970667358221220e13fab92098b67012111b23ad0e73fc9a12d224ddb28a9ad2d736bd1166b44da64736f6c634300080d0033",
  "immutableReferences": {},
  "source": "// SPDX-License-Identifier: GPL-3.0\r\npragma solidity >=0.8.0 <0.9.0;\r\nimport \"./Registration.sol\";\r\n\r\ncontract LetterProposal{\r\n    Registration registrationContract;\r\n    uint public letterID;\r\n    enum status {\r\n        Created,\r\n        TeacherAdmitted,\r\n        TeacherRejected,\r\n        TeacherCompleted,\r\n        SeenByCompany\r\n    } \r\n    struct LetterDocument{\r\n        bytes32 letterHash;\r\n        uint writtenDate; \r\n    }\r\n    struct letterType{\r\n        address student;\r\n        address teacher;\r\n        address company;\r\n        string proposalDescription;\r\n        status letterStatus;\r\n        LetterDocument letterDocument;\r\n\r\n    }\r\n    constructor(address registrationAddress)  {\r\n        registrationContract=Registration(registrationAddress);\r\n        letterID=uint(keccak256(abi.encodePacked(msg.sender,block.timestamp,address(this))));\r\n\r\n    }\r\n    mapping(uint=>letterType) public referenceLetters;\r\n    \r\n    event LetterCreated(uint letterID,address student,address teacher);\r\n\r\n    event LetterEvaluated(uint letterID,address student,address teacher,uint evaluatedDate);\r\n\r\n    event LetterAdmitted(uint letterID, address student,address teacher,uint admittedDate);\r\n\r\n    event LetterRejected(uint letterID, address student,address teacher,string rejectReason,uint rejectedDate);\r\n\r\n    event LetterAdded(uint letterID, address student,address teacher,uint addedDate);\r\n\r\n    event LetterSeenByCompany(uint letterID, address student, address teacher,address company, uint seenDate );\r\n    \r\n\r\n    modifier onlyStudent{\r\n      require(registrationContract.isStudent(msg.sender),\r\n      \"Bu islemi student yapabilir.\"\r\n      );\r\n      _;\r\n    }   \r\n    \r\n    modifier onlyTeacher{\r\n      require(registrationContract.isTeacher(msg.sender),\r\n      \"Bu islemi teacher yapabilir.\"\r\n      );\r\n      _;\r\n    }   \r\n    modifier onlyCompany{\r\n      require(registrationContract.isCompany(msg.sender),\r\n      \"Bu islemi company yapabilir.\"\r\n      );\r\n      _;\r\n    }\r\n\r\n    \r\n    function newLetterProposal(address _teacherAddress,address _companyAddress,string memory _proposalDescription) public onlyStudent {\r\n        require(registrationContract.isTeacher(_teacherAddress),\r\n        \"Teacher address not recognized.\"\r\n        );\r\n          require(registrationContract.isCompany(_companyAddress),\r\n        \"Company address not recognized.\"\r\n        );\r\n        letterID++;\r\n       \r\n        referenceLetters[letterID]=letterType(msg.sender,_teacherAddress,_companyAddress,_proposalDescription,status.Created,LetterDocument(0,block.timestamp));\r\n        \r\n        emit LetterCreated(letterID, msg.sender,_teacherAddress);\r\n\r\n    }\r\n    \r\n    function letterFirstEvaluate(uint _letterID) public onlyTeacher  returns(string memory) {\r\n        require(referenceLetters[_letterID].letterStatus==status.Created,\r\n        \"Referans durumunun CREATED olmasi gerekir\"\r\n        );\r\n        require(referenceLetters[_letterID].teacher==msg.sender,\r\n        \"Yalnizca kendinize atanan belgeye ulasabilirsiniz\"\r\n        );\r\n  \r\n        emit LetterEvaluated(_letterID, referenceLetters[letterID].student,msg.sender,block.timestamp);\r\n        return referenceLetters[_letterID].proposalDescription;\r\n\r\n    }\r\n\r\n    function letterAcceptOrReject(uint _letterID, bool accepted,string memory rejectReason) public onlyTeacher{\r\n         require(referenceLetters[_letterID].teacher==msg.sender,\r\n        \"Yalnizca kendinize atanan belgeye ulasabilirsiiniz\"\r\n        );\r\n        require(referenceLetters[_letterID].letterStatus==status.Created,\r\n        \"referansin yeni olusturulmus durumda olmasi gerekir\"\r\n        );\r\n        if(accepted){\r\n            referenceLetters[_letterID].letterStatus=status.TeacherAdmitted;\r\n      \r\n          emit LetterAdmitted( _letterID,  referenceLetters[letterID].student, msg.sender, block.timestamp);\r\n        }\r\n        else{\r\n            referenceLetters[letterID].letterStatus=status.TeacherRejected;\r\n                emit LetterRejected( letterID,  referenceLetters[letterID].student, msg.sender, rejectReason,block.timestamp);\r\n        }\r\n    }\r\n    \r\n    \r\n    function addLetter(uint _letterID, bytes32 _letterHash ) public onlyTeacher{\r\n        require(referenceLetters[_letterID].teacher==msg.sender,\r\n        \"Yalnizca kendinize atanan belgeye ulasabilirsiiniz\"\r\n        );\r\n       require(referenceLetters[_letterID].letterStatus==status.TeacherAdmitted,\r\n        \"referansin kabul edilmis durumda olmasi gerekir\"\r\n        );\r\n        referenceLetters[_letterID].letterDocument.letterHash=_letterHash;\r\n          referenceLetters[_letterID].letterDocument.writtenDate=block.timestamp;\r\n        referenceLetters[_letterID].letterStatus=status.TeacherCompleted;\r\n           emit LetterAdded( _letterID,  referenceLetters[_letterID].student, msg.sender, block.timestamp);\r\n\r\n    }\r\n    \r\n\r\n    \r\n\r\n} ",
  "sourcePath": "D:\\dapps\\refrenceLetter\\contracts\\LetterProposal.sol",
  "compiler": {
    "name": "solc",
    "version": "0.8.13+commit.abaa5c0e.Emscripten.clang"
  },
  "schemaVersion": "3.4.7",
  "updatedAt": "2022-04-30T14:06:12.576Z",
  "devdoc": {
    "kind": "dev",
    "methods": {},
    "version": 1
  },
  "userdoc": {
    "kind": "user",
    "methods": {},
    "version": 1
  }
}