{
  "contractName": "LetterProposal",
  "abi": [
    {
      "inputs": [
        {
          "internalType": "address",
          "name": "registrationAddress",
          "type": "address"
        }
      ],
      "stateMutability": "nonpayable",
      "type": "constructor"
    },
    {
      "anonymous": false,
      "inputs": [
        {
          "indexed": false,
          "internalType": "uint256",
          "name": "letterID",
          "type": "uint256"
        },
        {
          "indexed": false,
          "internalType": "address",
          "name": "student",
          "type": "address"
        },
        {
          "indexed": false,
          "internalType": "address",
          "name": "teacher",
          "type": "address"
        },
        {
          "indexed": false,
          "internalType": "uint256",
          "name": "addedDate",
          "type": "uint256"
        }
      ],
      "name": "LetterAdded",
      "type": "event"
    },
    {
      "anonymous": false,
      "inputs": [
        {
          "indexed": false,
          "internalType": "uint256",
          "name": "letterID",
          "type": "uint256"
        },
        {
          "indexed": false,
          "internalType": "address",
          "name": "student",
          "type": "address"
        },
        {
          "indexed": false,
          "internalType": "address",
          "name": "teacher",
          "type": "address"
        },
        {
          "indexed": false,
          "internalType": "uint256",
          "name": "admittedDate",
          "type": "uint256"
        }
      ],
      "name": "LetterAdmitted",
      "type": "event"
    },
    {
      "anonymous": false,
      "inputs": [
        {
          "indexed": false,
          "internalType": "uint256",
          "name": "letterID",
          "type": "uint256"
        },
        {
          "indexed": false,
          "internalType": "address",
          "name": "student",
          "type": "address"
        },
        {
          "indexed": false,
          "internalType": "address",
          "name": "teacher",
          "type": "address"
        }
      ],
      "name": "LetterCreated",
      "type": "event"
    },
    {
      "anonymous": false,
      "inputs": [
        {
          "indexed": false,
          "internalType": "uint256",
          "name": "letterID",
          "type": "uint256"
        },
        {
          "indexed": false,
          "internalType": "address",
          "name": "student",
          "type": "address"
        },
        {
          "indexed": false,
          "internalType": "address",
          "name": "teacher",
          "type": "address"
        },
        {
          "indexed": false,
          "internalType": "uint256",
          "name": "evaluatedDate",
          "type": "uint256"
        }
      ],
      "name": "LetterEvaluated",
      "type": "event"
    },
    {
      "anonymous": false,
      "inputs": [
        {
          "indexed": false,
          "internalType": "uint256",
          "name": "letterID",
          "type": "uint256"
        },
        {
          "indexed": false,
          "internalType": "address",
          "name": "student",
          "type": "address"
        },
        {
          "indexed": false,
          "internalType": "address",
          "name": "teacher",
          "type": "address"
        },
        {
          "indexed": false,
          "internalType": "string",
          "name": "rejectReason",
          "type": "string"
        },
        {
          "indexed": false,
          "internalType": "uint256",
          "name": "rejectedDate",
          "type": "uint256"
        }
      ],
      "name": "LetterRejected",
      "type": "event"
    },
    {
      "anonymous": false,
      "inputs": [
        {
          "indexed": false,
          "internalType": "uint256",
          "name": "letterID",
          "type": "uint256"
        },
        {
          "indexed": false,
          "internalType": "address",
          "name": "student",
          "type": "address"
        },
        {
          "indexed": false,
          "internalType": "address",
          "name": "teacher",
          "type": "address"
        },
        {
          "indexed": false,
          "internalType": "uint256",
          "name": "seenDate",
          "type": "uint256"
        }
      ],
      "name": "LetterSeenByRecipient",
      "type": "event"
    },
    {
      "inputs": [],
      "name": "letterID",
      "outputs": [
        {
          "internalType": "uint256",
          "name": "",
          "type": "uint256"
        }
      ],
      "stateMutability": "view",
      "type": "function"
    },
    {
      "inputs": [
        {
          "internalType": "uint256",
          "name": "",
          "type": "uint256"
        }
      ],
      "name": "referenceLetters",
      "outputs": [
        {
          "internalType": "address",
          "name": "student",
          "type": "address"
        },
        {
          "internalType": "address",
          "name": "teacher",
          "type": "address"
        },
        {
          "internalType": "address",
          "name": "recipient",
          "type": "address"
        },
        {
          "internalType": "string",
          "name": "proposalDescription",
          "type": "string"
        },
        {
          "internalType": "enum LetterProposal.status",
          "name": "letterStatus",
          "type": "uint8"
        },
        {
          "components": [
            {
              "internalType": "bytes32",
              "name": "letterHash",
              "type": "bytes32"
            },
            {
              "internalType": "uint256",
              "name": "writtenDate",
              "type": "uint256"
            },
            {
              "internalType": "uint256",
              "name": "seenDate",
              "type": "uint256"
            }
          ],
          "internalType": "struct LetterProposal.LetterDocument",
          "name": "letterDocument",
          "type": "tuple"
        }
      ],
      "stateMutability": "view",
      "type": "function"
    },
    {
      "inputs": [
        {
          "internalType": "address",
          "name": "_teacherAddress",
          "type": "address"
        },
        {
          "internalType": "address",
          "name": "_recipientAddress",
          "type": "address"
        },
        {
          "internalType": "string",
          "name": "_proposalDescription",
          "type": "string"
        }
      ],
      "name": "newLetterProposal",
      "outputs": [],
      "stateMutability": "nonpayable",
      "type": "function"
    },
    {
      "inputs": [
        {
          "internalType": "uint256",
          "name": "_letterID",
          "type": "uint256"
        }
      ],
      "name": "letterFirstEvaluate",
      "outputs": [
        {
          "internalType": "string",
          "name": "",
          "type": "string"
        }
      ],
      "stateMutability": "nonpayable",
      "type": "function"
    },
    {
      "inputs": [
        {
          "internalType": "uint256",
          "name": "_letterID",
          "type": "uint256"
        },
        {
          "internalType": "bool",
          "name": "accepted",
          "type": "bool"
        },
        {
          "internalType": "string",
          "name": "rejectReason",
          "type": "string"
        }
      ],
      "name": "letterAcceptOrReject",
      "outputs": [],
      "stateMutability": "nonpayable",
      "type": "function"
    },
    {
      "inputs": [
        {
          "internalType": "uint256",
          "name": "_letterID",
          "type": "uint256"
        },
        {
          "internalType": "bytes32",
          "name": "_letterHash",
          "type": "bytes32"
        }
      ],
      "name": "addLetter",
      "outputs": [],
      "stateMutability": "nonpayable",
      "type": "function"
    },
    {
      "inputs": [
        {
          "internalType": "uint256",
          "name": "_letterID",
          "type": "uint256"
        }
      ],
      "name": "letterSeenByRecipient",
      "outputs": [],
      "stateMutability": "nonpayable",
      "type": "function"
    }
  ],
  "bytecode": "0x60806040523480156200001157600080fd5b50604051620025923803806200259283398181016040528101906200003791906200011e565b806000806101000a81548173ffffffffffffffffffffffffffffffffffffffff021916908373ffffffffffffffffffffffffffffffffffffffff1602179055503342306040516020016200008e93929190620001cf565b6040516020818303038152906040528051906020012060001c6001819055505062000212565b600080fd5b600073ffffffffffffffffffffffffffffffffffffffff82169050919050565b6000620000e682620000b9565b9050919050565b620000f881620000d9565b81146200010457600080fd5b50565b6000815190506200011881620000ed565b92915050565b600060208284031215620001375762000136620000b4565b5b6000620001478482850162000107565b91505092915050565b60008160601b9050919050565b60006200016a8262000150565b9050919050565b60006200017e826200015d565b9050919050565b6200019a6200019482620000d9565b62000171565b82525050565b6000819050919050565b6000819050919050565b620001c9620001c382620001a0565b620001aa565b82525050565b6000620001dd828662000185565b601482019150620001ef8285620001b4565b60208201915062000201828462000185565b601482019150819050949350505050565b61237080620002226000396000f3fe608060405234801561001057600080fd5b506004361061007d5760003560e01c80639fe495771161005b5780639fe49577146100f1578063d22905e61461010d578063fe3cb0931461013d578063ffd056ea146101595761007d565b80633d9f3b0814610082578063612e18f51461009e5780637bcbf7c0146100d3575b600080fd5b61009c600480360381019061009791906115fc565b610175565b005b6100b860048036038101906100b391906115fc565b610485565b6040516100ca969594939291906117e4565b60405180910390f35b6100db6105de565b6040516100e8919061185c565b60405180910390f35b61010b600480360381019061010691906119e4565b6105e4565b005b610127600480360381019061012291906115fc565b610969565b6040516101349190611a53565b60405180910390f35b61015760048036038101906101529190611aa1565b610c8d565b005b610173600480360381019061016e9190611b3c565b611216565b005b60008054906101000a900473ffffffffffffffffffffffffffffffffffffffff1673ffffffffffffffffffffffffffffffffffffffff16638c5143ea336040518263ffffffff1660e01b81526004016101ce9190611b7c565b602060405180830381865afa1580156101eb573d6000803e3d6000fd5b505050506040513d601f19601f8201168201806040525081019061020f9190611bac565b61024e576040517f08c379a000000000000000000000000000000000000000000000000000000000815260040161024590611c4b565b60405180910390fd5b3373ffffffffffffffffffffffffffffffffffffffff166002600083815260200190815260200160002060020160009054906101000a900473ffffffffffffffffffffffffffffffffffffffff1673ffffffffffffffffffffffffffffffffffffffff16146102f2576040517f08c379a00000000000000000000000000000000000000000000000000000000081526004016102e990611cdd565b60405180910390fd5b6003600481111561030657610305611703565b5b6002600083815260200190815260200160002060040160009054906101000a900460ff16600481111561033c5761033b611703565b5b1461037c576040517f08c379a000000000000000000000000000000000000000000000000000000000815260040161037390611d6f565b60405180910390fd5b42600260008381526020019081526020016000206005016002018190555060046002600083815260200190815260200160002060040160006101000a81548160ff021916908360048111156103d4576103d3611703565b5b02179055507f1407f00ca198706c5fd501788a51c888de4bd4348a2c33a70b9280a241073f25816002600084815260200190815260200160002060000160009054906101000a900473ffffffffffffffffffffffffffffffffffffffff166002600085815260200190815260200160002060010160009054906101000a900473ffffffffffffffffffffffffffffffffffffffff164260405161047a9493929190611d8f565b60405180910390a150565b60026020528060005260406000206000915090508060000160009054906101000a900473ffffffffffffffffffffffffffffffffffffffff16908060010160009054906101000a900473ffffffffffffffffffffffffffffffffffffffff16908060020160009054906101000a900473ffffffffffffffffffffffffffffffffffffffff169080600301805461051a90611e03565b80601f016020809104026020016040519081016040528092919081815260200182805461054690611e03565b80156105935780601f1061056857610100808354040283529160200191610593565b820191906000526020600020905b81548152906001019060200180831161057657829003601f168201915b5050505050908060040160009054906101000a900460ff1690806005016040518060600160405290816000820154815260200160018201548152602001600282015481525050905086565b60015481565b60008054906101000a900473ffffffffffffffffffffffffffffffffffffffff1673ffffffffffffffffffffffffffffffffffffffff1663aec37eb3336040518263ffffffff1660e01b815260040161063d9190611b7c565b602060405180830381865afa15801561065a573d6000803e3d6000fd5b505050506040513d601f19601f8201168201806040525081019061067e9190611bac565b6106bd576040517f08c379a00000000000000000000000000000000000000000000000000000000081526004016106b490611ea6565b60405180910390fd5b3373ffffffffffffffffffffffffffffffffffffffff166002600085815260200190815260200160002060010160009054906101000a900473ffffffffffffffffffffffffffffffffffffffff1673ffffffffffffffffffffffffffffffffffffffff1614610761576040517f08c379a000000000000000000000000000000000000000000000000000000000815260040161075890611cdd565b60405180910390fd5b6000600481111561077557610774611703565b5b6002600085815260200190815260200160002060040160009054906101000a900460ff1660048111156107ab576107aa611703565b5b146107eb576040517f08c379a00000000000000000000000000000000000000000000000000000000081526004016107e290611f38565b60405180910390fd5b81156108aa5760016002600085815260200190815260200160002060040160006101000a81548160ff0219169083600481111561082b5761082a611703565b5b02179055507f3b5e1de666723967fbdd95dd4c2c359769ab6fa1eed327c3fb4e9a53123bc0008360026000600154815260200190815260200160002060000160009054906101000a900473ffffffffffffffffffffffffffffffffffffffff16334260405161089d9493929190611d8f565b60405180910390a1610964565b6002806000600154815260200190815260200160002060040160006101000a81548160ff021916908360048111156108e5576108e4611703565b5b02179055507f206a4a2110fab9a1b539a22b17781fa7c849034b2091f2815171e4a2438c50fd60015460026000600154815260200190815260200160002060000160009054906101000a900473ffffffffffffffffffffffffffffffffffffffff1633844260405161095b959493929190611f58565b60405180910390a15b505050565b606060008054906101000a900473ffffffffffffffffffffffffffffffffffffffff1673ffffffffffffffffffffffffffffffffffffffff1663aec37eb3336040518263ffffffff1660e01b81526004016109c49190611b7c565b602060405180830381865afa1580156109e1573d6000803e3d6000fd5b505050506040513d601f19601f82011682018060405250810190610a059190611bac565b610a44576040517f08c379a0000000000000000000000000000000000000000000000000000000008152600401610a3b90611ea6565b60405180910390fd5b60006004811115610a5857610a57611703565b5b6002600084815260200190815260200160002060040160009054906101000a900460ff166004811115610a8e57610a8d611703565b5b14610ace576040517f08c379a0000000000000000000000000000000000000000000000000000000008152600401610ac590612024565b60405180910390fd5b3373ffffffffffffffffffffffffffffffffffffffff166002600084815260200190815260200160002060010160009054906101000a900473ffffffffffffffffffffffffffffffffffffffff1673ffffffffffffffffffffffffffffffffffffffff1614610b72576040517f08c379a0000000000000000000000000000000000000000000000000000000008152600401610b69906120b6565b60405180910390fd5b7f4218cf8b15fe219a8a21385e0e5ded40b1fd32855d7f5d2241db9f1ced38f06e8260026000600154815260200190815260200160002060000160009054906101000a900473ffffffffffffffffffffffffffffffffffffffff163342604051610bdf9493929190611d8f565b60405180910390a1600260008381526020019081526020016000206003018054610c0890611e03565b80601f0160208091040260200160405190810160405280929190818152602001828054610c3490611e03565b8015610c815780601f10610c5657610100808354040283529160200191610c81565b820191906000526020600020905b815481529060010190602001808311610c6457829003601f168201915b50505050509050919050565b60008054906101000a900473ffffffffffffffffffffffffffffffffffffffff1673ffffffffffffffffffffffffffffffffffffffff166382f7d392336040518263ffffffff1660e01b8152600401610ce69190611b7c565b602060405180830381865afa158015610d03573d6000803e3d6000fd5b505050506040513d601f19601f82011682018060405250810190610d279190611bac565b610d66576040517f08c379a0000000000000000000000000000000000000000000000000000000008152600401610d5d90612148565b60405180910390fd5b60008054906101000a900473ffffffffffffffffffffffffffffffffffffffff1673ffffffffffffffffffffffffffffffffffffffff1663aec37eb3846040518263ffffffff1660e01b8152600401610dbf9190611b7c565b602060405180830381865afa158015610ddc573d6000803e3d6000fd5b505050506040513d601f19601f82011682018060405250810190610e009190611bac565b610e3f576040517f08c379a0000000000000000000000000000000000000000000000000000000008152600401610e36906121da565b60405180910390fd5b60008054906101000a900473ffffffffffffffffffffffffffffffffffffffff1673ffffffffffffffffffffffffffffffffffffffff1663a0406ce2836040518263ffffffff1660e01b8152600401610e989190611b7c565b602060405180830381865afa158015610eb5573d6000803e3d6000fd5b505050506040513d601f19601f82011682018060405250810190610ed99190611bac565b80610f7a575060008054906101000a900473ffffffffffffffffffffffffffffffffffffffff1673ffffffffffffffffffffffffffffffffffffffff1663cd7047cb836040518263ffffffff1660e01b8152600401610f389190611b7c565b602060405180830381865afa158015610f55573d6000803e3d6000fd5b505050506040513d601f19601f82011682018060405250810190610f799190611bac565b5b610fb9576040517f08c379a0000000000000000000000000000000000000000000000000000000008152600401610fb09061226c565b60405180910390fd5b60016000815480929190610fcc906122bb565b91905055506040518060c001604052803373ffffffffffffffffffffffffffffffffffffffff1681526020018473ffffffffffffffffffffffffffffffffffffffff1681526020018373ffffffffffffffffffffffffffffffffffffffff1681526020018281526020016000600481111561104a57611049611703565b5b815260200160405180606001604052806000801b8152602001428152602001600081525081525060026000600154815260200190815260200160002060008201518160000160006101000a81548173ffffffffffffffffffffffffffffffffffffffff021916908373ffffffffffffffffffffffffffffffffffffffff16021790555060208201518160010160006101000a81548173ffffffffffffffffffffffffffffffffffffffff021916908373ffffffffffffffffffffffffffffffffffffffff16021790555060408201518160020160006101000a81548173ffffffffffffffffffffffffffffffffffffffff021916908373ffffffffffffffffffffffffffffffffffffffff160217905550606082015181600301908051906020019061117792919061150f565b5060808201518160040160006101000a81548160ff021916908360048111156111a3576111a2611703565b5b021790555060a08201518160050160008201518160000155602082015181600101556040820151816002015550509050507f75846bc0efc34af460e8d4d7a9d2632cb494a6344899a2f11a739745842ba2e8600154338560405161120993929190612303565b60405180910390a1505050565b60008054906101000a900473ffffffffffffffffffffffffffffffffffffffff1673ffffffffffffffffffffffffffffffffffffffff1663aec37eb3336040518263ffffffff1660e01b815260040161126f9190611b7c565b602060405180830381865afa15801561128c573d6000803e3d6000fd5b505050506040513d601f19601f820116820180604052508101906112b09190611bac565b6112ef576040517f08c379a00000000000000000000000000000000000000000000000000000000081526004016112e690611ea6565b60405180910390fd5b3373ffffffffffffffffffffffffffffffffffffffff166002600084815260200190815260200160002060010160009054906101000a900473ffffffffffffffffffffffffffffffffffffffff1673ffffffffffffffffffffffffffffffffffffffff1614611393576040517f08c379a000000000000000000000000000000000000000000000000000000000815260040161138a90611cdd565b60405180910390fd5b600160048111156113a7576113a6611703565b5b6002600084815260200190815260200160002060040160009054906101000a900460ff1660048111156113dd576113dc611703565b5b1461141d576040517f08c379a000000000000000000000000000000000000000000000000000000000815260040161141490611d6f565b60405180910390fd5b80600260008481526020019081526020016000206005016000018190555042600260008481526020019081526020016000206005016001018190555060036002600084815260200190815260200160002060040160006101000a81548160ff0219169083600481111561149357611492611703565b5b02179055507f392f1fd2cff454cd6fcd14f516c11a0400a83dd3e60dba0d23765ebc067bac9b826002600085815260200190815260200160002060000160009054906101000a900473ffffffffffffffffffffffffffffffffffffffff1633426040516115039493929190611d8f565b60405180910390a15050565b82805461151b90611e03565b90600052602060002090601f01602090048101928261153d5760008555611584565b82601f1061155657805160ff1916838001178555611584565b82800160010185558215611584579182015b82811115611583578251825591602001919060010190611568565b5b5090506115919190611595565b5090565b5b808211156115ae576000816000905550600101611596565b5090565b6000604051905090565b600080fd5b600080fd5b6000819050919050565b6115d9816115c6565b81146115e457600080fd5b50565b6000813590506115f6816115d0565b92915050565b600060208284031215611612576116116115bc565b5b6000611620848285016115e7565b91505092915050565b600073ffffffffffffffffffffffffffffffffffffffff82169050919050565b600061165482611629565b9050919050565b61166481611649565b82525050565b600081519050919050565b600082825260208201905092915050565b60005b838110156116a4578082015181840152602081019050611689565b838111156116b3576000848401525b50505050565b6000601f19601f8301169050919050565b60006116d58261166a565b6116df8185611675565b93506116ef818560208601611686565b6116f8816116b9565b840191505092915050565b7f4e487b7100000000000000000000000000000000000000000000000000000000600052602160045260246000fd5b6005811061174357611742611703565b5b50565b600081905061175482611732565b919050565b600061176482611746565b9050919050565b61177481611759565b82525050565b6000819050919050565b61178d8161177a565b82525050565b61179c816115c6565b82525050565b6060820160008201516117b86000850182611784565b5060208201516117cb6020850182611793565b5060408201516117de6040850182611793565b50505050565b6000610100820190506117fa600083018961165b565b611807602083018861165b565b611814604083018761165b565b818103606083015261182681866116ca565b9050611835608083018561176b565b61184260a08301846117a2565b979650505050505050565b611856816115c6565b82525050565b6000602082019050611871600083018461184d565b92915050565b60008115159050919050565b61188c81611877565b811461189757600080fd5b50565b6000813590506118a981611883565b92915050565b600080fd5b600080fd5b7f4e487b7100000000000000000000000000000000000000000000000000000000600052604160045260246000fd5b6118f1826116b9565b810181811067ffffffffffffffff821117156119105761190f6118b9565b5b80604052505050565b60006119236115b2565b905061192f82826118e8565b919050565b600067ffffffffffffffff82111561194f5761194e6118b9565b5b611958826116b9565b9050602081019050919050565b82818337600083830152505050565b600061198761198284611934565b611919565b9050828152602081018484840111156119a3576119a26118b4565b5b6119ae848285611965565b509392505050565b600082601f8301126119cb576119ca6118af565b5b81356119db848260208601611974565b91505092915050565b6000806000606084860312156119fd576119fc6115bc565b5b6000611a0b868287016115e7565b9350506020611a1c8682870161189a565b925050604084013567ffffffffffffffff811115611a3d57611a3c6115c1565b5b611a49868287016119b6565b9150509250925092565b60006020820190508181036000830152611a6d81846116ca565b905092915050565b611a7e81611649565b8114611a8957600080fd5b50565b600081359050611a9b81611a75565b92915050565b600080600060608486031215611aba57611ab96115bc565b5b6000611ac886828701611a8c565b9350506020611ad986828701611a8c565b925050604084013567ffffffffffffffff811115611afa57611af96115c1565b5b611b06868287016119b6565b9150509250925092565b611b198161177a565b8114611b2457600080fd5b50565b600081359050611b3681611b10565b92915050565b60008060408385031215611b5357611b526115bc565b5b6000611b61858286016115e7565b9250506020611b7285828601611b27565b9150509250929050565b6000602082019050611b91600083018461165b565b92915050565b600081519050611ba681611883565b92915050565b600060208284031215611bc257611bc16115bc565b5b6000611bd084828501611b97565b91505092915050565b7f42752069736c656d6920736164656365206f7a656c2076657961207265736d6960008201527f206b7572756d6c6172207961706162696c69722e000000000000000000000000602082015250565b6000611c35603483611675565b9150611c4082611bd9565b604082019050919050565b60006020820190508181036000830152611c6481611c28565b9050919050565b7f59616c6e697a6361206b656e64696e697a65206174616e616e2062656c67657960008201527f6520756c61736162696c69727369696e697a0000000000000000000000000000602082015250565b6000611cc7603283611675565b9150611cd282611c6b565b604082019050919050565b60006020820190508181036000830152611cf681611cba565b9050919050565b7f7265666572616e73696e206b6162756c206564696c6d697320647572756d646160008201527f206f6c6d61736920676572656b69720000000000000000000000000000000000602082015250565b6000611d59602f83611675565b9150611d6482611cfd565b604082019050919050565b60006020820190508181036000830152611d8881611d4c565b9050919050565b6000608082019050611da4600083018761184d565b611db1602083018661165b565b611dbe604083018561165b565b611dcb606083018461184d565b95945050505050565b7f4e487b7100000000000000000000000000000000000000000000000000000000600052602260045260246000fd5b60006002820490506001821680611e1b57607f821691505b602082108103611e2e57611e2d611dd4565b5b50919050565b7f42752069736c656d692073616465636520616b6164656d697379656e2079617060008201527f6162696c69722e00000000000000000000000000000000000000000000000000602082015250565b6000611e90602783611675565b9150611e9b82611e34565b604082019050919050565b60006020820190508181036000830152611ebf81611e83565b9050919050565b7f7265666572616e73696e2079656e69206f6c7573747572756c6d75732064757260008201527f756d6461206f6c6d61736920676572656b697200000000000000000000000000602082015250565b6000611f22603383611675565b9150611f2d82611ec6565b604082019050919050565b60006020820190508181036000830152611f5181611f15565b9050919050565b600060a082019050611f6d600083018861184d565b611f7a602083018761165b565b611f87604083018661165b565b8181036060830152611f9981856116ca565b9050611fa8608083018461184d565b9695505050505050565b7f5265666572616e7320647572756d756e756e2043524541544544206f6c6d617360008201527f6920676572656b69720000000000000000000000000000000000000000000000602082015250565b600061200e602983611675565b915061201982611fb2565b604082019050919050565b6000602082019050818103600083015261203d81612001565b9050919050565b7f59616c6e697a6361206b656e64696e697a65206174616e616e2062656c67657960008201527f6520756c61736162696c697273696e697a000000000000000000000000000000602082015250565b60006120a0603183611675565b91506120ab82612044565b604082019050919050565b600060208201905081810360008301526120cf81612093565b9050919050565b7f42752069736c656d6920736164656365206f6772656e6369207961706162696c60008201527f69722e0000000000000000000000000000000000000000000000000000000000602082015250565b6000612132602383611675565b915061213d826120d6565b604082019050919050565b6000602082019050818103600083015261216181612125565b9050919050565b7f416b6164656d697379656e206164726573692074616e696d6c616e616d61646960008201527f2e00000000000000000000000000000000000000000000000000000000000000602082015250565b60006121c4602183611675565b91506121cf82612168565b604082019050919050565b600060208201905081810360008301526121f3816121b7565b9050919050565b7f4f7a656c2f7265736d69206b7572756d206164726573692074616e696d6c616e60008201527f616d6164692e0000000000000000000000000000000000000000000000000000602082015250565b6000612256602683611675565b9150612261826121fa565b604082019050919050565b6000602082019050818103600083015261228581612249565b9050919050565b7f4e487b7100000000000000000000000000000000000000000000000000000000600052601160045260246000fd5b60006122c6826115c6565b91507fffffffffffffffffffffffffffffffffffffffffffffffffffffffffffffffff82036122f8576122f761228c565b5b600182019050919050565b6000606082019050612318600083018661184d565b612325602083018561165b565b612332604083018461165b565b94935050505056fea26469706673582212204aac3abe23ec60cad71b559d19d1b1cdb885f416b85c067a20de980ae0322aec64736f6c634300080d0033",
  "immutableReferences": {},
  "source": "// SPDX-License-Identifier: GPL-3.0\r\npragma solidity >=0.8.0 <0.9.0;\r\nimport \"./Registration.sol\";\r\n\r\ncontract LetterProposal{\r\n    Registration registrationContract;\r\n    uint public letterID;\r\n    enum status {\r\n        Created,\r\n        TeacherAdmitted,\r\n        TeacherRejected,\r\n        TeacherCompleted,\r\n        SeenByRecipient\r\n    } \r\n    struct LetterDocument{\r\n        bytes32 letterHash;\r\n        uint writtenDate; \r\n        uint seenDate;\r\n    }\r\n    struct ReferenceLetter{\r\n        address student;\r\n        address teacher;\r\n        address recipient;\r\n        string proposalDescription;\r\n        status letterStatus;\r\n        LetterDocument letterDocument;\r\n\r\n    }\r\n    constructor(address registrationAddress)  {\r\n        registrationContract=Registration(registrationAddress);\r\n        letterID=uint(keccak256(abi.encodePacked(msg.sender,block.timestamp,address(this))));\r\n\r\n    }\r\n    mapping(uint=>ReferenceLetter) public referenceLetters;\r\n    \r\n    event LetterCreated(uint letterID,address student,address teacher);\r\n\r\n    event LetterEvaluated(uint letterID,address student,address teacher,uint evaluatedDate);\r\n\r\n    event LetterAdmitted(uint letterID, address student,address teacher,uint admittedDate);\r\n\r\n    event LetterRejected(uint letterID, address student,address teacher,string rejectReason,uint rejectedDate);\r\n\r\n    event LetterAdded(uint letterID, address student,address teacher,uint addedDate);\r\n\r\n    event LetterSeenByRecipient(uint letterID, address student, address teacher, uint seenDate );\r\n    \r\n\r\n    modifier onlyStudent{\r\n      require(registrationContract.isStudent(msg.sender),\r\n      \"Bu islemi sadece ogrenci yapabilir.\"\r\n      );\r\n      _;\r\n    }   \r\n    \r\n    modifier onlyTeacher{\r\n      require(registrationContract.isTeacher(msg.sender),\r\n      \"Bu islemi sadece akademisyen yapabilir.\"\r\n      );\r\n      _;\r\n    }   \r\n    modifier onlyRecipient{\r\n      require(registrationContract.isRecipient(msg.sender),\r\n      \"Bu islemi sadece ozel veya resmi kurumlar yapabilir.\"\r\n      );\r\n      _;\r\n    }\r\n\r\n    \r\n    function newLetterProposal(address _teacherAddress,address _recipientAddress,string memory _proposalDescription) public onlyStudent {\r\n        require(registrationContract.isTeacher(_teacherAddress),\r\n        \"Akademisyen adresi tanimlanamadi.\"\r\n        );\r\n          require(registrationContract.isCompany(_recipientAddress)||registrationContract.isPublicInstitution(_recipientAddress),\r\n        \"Ozel/resmi kurum adresi tanimlanamadi.\"\r\n        );\r\n        letterID++;\r\n       \r\n        referenceLetters[letterID]=ReferenceLetter(msg.sender,_teacherAddress,_recipientAddress,_proposalDescription,status.Created,LetterDocument(0,block.timestamp,0));\r\n        \r\n        emit LetterCreated(letterID, msg.sender,_teacherAddress);\r\n\r\n    }\r\n    \r\n    function letterFirstEvaluate(uint _letterID) public onlyTeacher  returns(string memory) {\r\n        require(referenceLetters[_letterID].letterStatus==status.Created,\r\n        \"Referans durumunun CREATED olmasi gerekir\"\r\n        );\r\n        require(referenceLetters[_letterID].teacher==msg.sender,\r\n        \"Yalnizca kendinize atanan belgeye ulasabilirsiniz\"\r\n        );\r\n  \r\n        emit LetterEvaluated(_letterID, referenceLetters[letterID].student,msg.sender,block.timestamp);\r\n        return referenceLetters[_letterID].proposalDescription;\r\n\r\n    }\r\n\r\n    function letterAcceptOrReject(uint _letterID, bool accepted,string memory rejectReason) public onlyTeacher{\r\n         require(referenceLetters[_letterID].teacher==msg.sender,\r\n        \"Yalnizca kendinize atanan belgeye ulasabilirsiiniz\"\r\n        );\r\n        require(referenceLetters[_letterID].letterStatus==status.Created,\r\n        \"referansin yeni olusturulmus durumda olmasi gerekir\"\r\n        );\r\n        if(accepted){\r\n            referenceLetters[_letterID].letterStatus=status.TeacherAdmitted;\r\n      \r\n          emit LetterAdmitted( _letterID,  referenceLetters[letterID].student, msg.sender, block.timestamp);\r\n        }\r\n        else{\r\n            referenceLetters[letterID].letterStatus=status.TeacherRejected;\r\n                emit LetterRejected( letterID,  referenceLetters[letterID].student, msg.sender, rejectReason,block.timestamp);\r\n        }\r\n    }\r\n    \r\n    \r\n    function addLetter(uint _letterID, bytes32 _letterHash ) public onlyTeacher{\r\n        require(referenceLetters[_letterID].teacher==msg.sender,\r\n        \"Yalnizca kendinize atanan belgeye ulasabilirsiiniz\"\r\n        );\r\n       require(referenceLetters[_letterID].letterStatus==status.TeacherAdmitted,\r\n        \"referansin kabul edilmis durumda olmasi gerekir\"\r\n        );\r\n        referenceLetters[_letterID].letterDocument.letterHash=_letterHash;\r\n          referenceLetters[_letterID].letterDocument.writtenDate=block.timestamp;\r\n        referenceLetters[_letterID].letterStatus=status.TeacherCompleted;\r\n           emit LetterAdded( _letterID,  referenceLetters[_letterID].student, msg.sender, block.timestamp);\r\n\r\n    }\r\n    \r\n    function letterSeenByRecipient(uint _letterID) public onlyRecipient{\r\n        require(referenceLetters[_letterID].recipient==msg.sender,\r\n        \"Yalnizca kendinize atanan belgeye ulasabilirsiiniz\"\r\n        );\r\n       require(referenceLetters[_letterID].letterStatus==status.TeacherCompleted,\r\n        \"referansin kabul edilmis durumda olmasi gerekir\"\r\n        );\r\n       \r\n        referenceLetters[_letterID].letterDocument.seenDate=block.timestamp;\r\n        referenceLetters[_letterID].letterStatus=status.SeenByRecipient;\r\n        emit LetterSeenByRecipient(_letterID, referenceLetters[_letterID].student, referenceLetters[_letterID].teacher, block.timestamp );\r\n\r\n    }\r\n    \r\n\r\n} ",
  "sourcePath": "D:\\dapps\\refrenceLetter\\contracts\\LetterProposal.sol",
  "compiler": {
    "name": "solc",
    "version": "0.8.13+commit.abaa5c0e.Emscripten.clang"
  },
  "schemaVersion": "3.4.7",
  "updatedAt": "2022-07-02T20:12:48.867Z",
  "devdoc": {
    "kind": "dev",
    "methods": {},
    "version": 1
  },
  "userdoc": {
    "kind": "user",
    "methods": {},
    "version": 1
  }
}