{
  "contractName": "LetterProposal",
  "abi": [
    {
      "inputs": [
        {
          "internalType": "address",
          "name": "registrationAddress",
          "type": "address"
        }
      ],
      "stateMutability": "nonpayable",
      "type": "constructor"
    },
    {
      "anonymous": false,
      "inputs": [
        {
          "indexed": false,
          "internalType": "uint256",
          "name": "letterID",
          "type": "uint256"
        },
        {
          "indexed": false,
          "internalType": "address",
          "name": "student",
          "type": "address"
        },
        {
          "indexed": false,
          "internalType": "address",
          "name": "teacher",
          "type": "address"
        },
        {
          "indexed": false,
          "internalType": "uint256",
          "name": "addedDate",
          "type": "uint256"
        }
      ],
      "name": "LetterAdded",
      "type": "event"
    },
    {
      "anonymous": false,
      "inputs": [
        {
          "indexed": false,
          "internalType": "uint256",
          "name": "letterID",
          "type": "uint256"
        },
        {
          "indexed": false,
          "internalType": "address",
          "name": "student",
          "type": "address"
        },
        {
          "indexed": false,
          "internalType": "address",
          "name": "teacher",
          "type": "address"
        },
        {
          "indexed": false,
          "internalType": "uint256",
          "name": "admittedDate",
          "type": "uint256"
        }
      ],
      "name": "LetterAdmitted",
      "type": "event"
    },
    {
      "anonymous": false,
      "inputs": [
        {
          "indexed": false,
          "internalType": "uint256",
          "name": "letterID",
          "type": "uint256"
        },
        {
          "indexed": false,
          "internalType": "address",
          "name": "student",
          "type": "address"
        },
        {
          "indexed": false,
          "internalType": "address",
          "name": "teacher",
          "type": "address"
        }
      ],
      "name": "LetterCreated",
      "type": "event"
    },
    {
      "anonymous": false,
      "inputs": [
        {
          "indexed": false,
          "internalType": "uint256",
          "name": "letterID",
          "type": "uint256"
        },
        {
          "indexed": false,
          "internalType": "address",
          "name": "student",
          "type": "address"
        },
        {
          "indexed": false,
          "internalType": "address",
          "name": "teacher",
          "type": "address"
        },
        {
          "indexed": false,
          "internalType": "uint256",
          "name": "evaluatedDate",
          "type": "uint256"
        }
      ],
      "name": "LetterEvaluated",
      "type": "event"
    },
    {
      "anonymous": false,
      "inputs": [
        {
          "indexed": false,
          "internalType": "uint256",
          "name": "letterID",
          "type": "uint256"
        },
        {
          "indexed": false,
          "internalType": "address",
          "name": "student",
          "type": "address"
        },
        {
          "indexed": false,
          "internalType": "address",
          "name": "teacher",
          "type": "address"
        },
        {
          "indexed": false,
          "internalType": "string",
          "name": "rejectReason",
          "type": "string"
        },
        {
          "indexed": false,
          "internalType": "uint256",
          "name": "rejectedDate",
          "type": "uint256"
        }
      ],
      "name": "LetterRejected",
      "type": "event"
    },
    {
      "anonymous": false,
      "inputs": [
        {
          "indexed": false,
          "internalType": "uint256",
          "name": "letterID",
          "type": "uint256"
        },
        {
          "indexed": false,
          "internalType": "address",
          "name": "student",
          "type": "address"
        },
        {
          "indexed": false,
          "internalType": "address",
          "name": "teacher",
          "type": "address"
        },
        {
          "indexed": false,
          "internalType": "address",
          "name": "company",
          "type": "address"
        },
        {
          "indexed": false,
          "internalType": "uint256",
          "name": "seenDate",
          "type": "uint256"
        }
      ],
      "name": "LetterSeenByCompany",
      "type": "event"
    },
    {
      "inputs": [],
      "name": "letterID",
      "outputs": [
        {
          "internalType": "uint256",
          "name": "",
          "type": "uint256"
        }
      ],
      "stateMutability": "view",
      "type": "function"
    },
    {
      "inputs": [
        {
          "internalType": "uint256",
          "name": "",
          "type": "uint256"
        }
      ],
      "name": "referenceLetters",
      "outputs": [
        {
          "internalType": "address",
          "name": "student",
          "type": "address"
        },
        {
          "internalType": "address",
          "name": "teacher",
          "type": "address"
        },
        {
          "internalType": "address",
          "name": "company",
          "type": "address"
        },
        {
          "internalType": "string",
          "name": "proposalDescription",
          "type": "string"
        },
        {
          "internalType": "enum LetterProposal.status",
          "name": "letterStatus",
          "type": "uint8"
        },
        {
          "components": [
            {
              "internalType": "string",
              "name": "letterHash",
              "type": "string"
            },
            {
              "internalType": "uint256",
              "name": "writtenDate",
              "type": "uint256"
            }
          ],
          "internalType": "struct LetterProposal.LetterDocument",
          "name": "letterDocument",
          "type": "tuple"
        }
      ],
      "stateMutability": "view",
      "type": "function"
    },
    {
      "inputs": [
        {
          "internalType": "address",
          "name": "_teacherAddress",
          "type": "address"
        },
        {
          "internalType": "address",
          "name": "_companyAddress",
          "type": "address"
        },
        {
          "internalType": "string",
          "name": "_proposalDescription",
          "type": "string"
        }
      ],
      "name": "newLetterProposal",
      "outputs": [],
      "stateMutability": "nonpayable",
      "type": "function"
    },
    {
      "inputs": [
        {
          "internalType": "uint256",
          "name": "_letterID",
          "type": "uint256"
        }
      ],
      "name": "letterFirstEvaluate",
      "outputs": [
        {
          "internalType": "string",
          "name": "",
          "type": "string"
        }
      ],
      "stateMutability": "nonpayable",
      "type": "function"
    },
    {
      "inputs": [
        {
          "internalType": "uint256",
          "name": "_letterID",
          "type": "uint256"
        },
        {
          "internalType": "bool",
          "name": "accepted",
          "type": "bool"
        },
        {
          "internalType": "string",
          "name": "rejectReason",
          "type": "string"
        }
      ],
      "name": "letterAcceptOrReject",
      "outputs": [],
      "stateMutability": "nonpayable",
      "type": "function"
    },
    {
      "inputs": [
        {
          "internalType": "uint256",
          "name": "_letterID",
          "type": "uint256"
        },
        {
          "internalType": "string",
          "name": "_letterHash",
          "type": "string"
        }
      ],
      "name": "addLetter",
      "outputs": [],
      "stateMutability": "nonpayable",
      "type": "function"
    }
  ],
  "bytecode": "0x60806040523480156200001157600080fd5b506040516200213e3803806200213e83398181016040528101906200003791906200011e565b806000806101000a81548173ffffffffffffffffffffffffffffffffffffffff021916908373ffffffffffffffffffffffffffffffffffffffff1602179055503342306040516020016200008e93929190620001cf565b6040516020818303038152906040528051906020012060001c6001819055505062000212565b600080fd5b600073ffffffffffffffffffffffffffffffffffffffff82169050919050565b6000620000e682620000b9565b9050919050565b620000f881620000d9565b81146200010457600080fd5b50565b6000815190506200011881620000ed565b92915050565b600060208284031215620001375762000136620000b4565b5b6000620001478482850162000107565b91505092915050565b60008160601b9050919050565b60006200016a8262000150565b9050919050565b60006200017e826200015d565b9050919050565b6200019a6200019482620000d9565b62000171565b82525050565b6000819050919050565b6000819050919050565b620001c9620001c382620001a0565b620001aa565b82525050565b6000620001dd828662000185565b601482019150620001ef8285620001b4565b60208201915062000201828462000185565b601482019150819050949350505050565b611f1c80620002226000396000f3fe608060405234801561001057600080fd5b50600436106100625760003560e01c8063612e18f5146100675780637bcbf7c01461009c5780639fe49577146100ba578063d22905e6146100d6578063d7b875c614610106578063fe3cb09314610122575b600080fd5b610081600480360381019061007c91906112b0565b61013e565b604051610093969594939291906114c4565b60405180910390f35b6100a4610315565b6040516100b19190611542565b60405180910390f35b6100d460048036038101906100cf91906116ca565b61031b565b005b6100f060048036038101906100eb91906112b0565b6106a0565b6040516100fd9190611739565b60405180910390f35b610120600480360381019061011b919061175b565b6109c4565b005b61013c600480360381019061013791906117e3565b610ccd565b005b60026020528060005260406000206000915090508060000160009054906101000a900473ffffffffffffffffffffffffffffffffffffffff16908060010160009054906101000a900473ffffffffffffffffffffffffffffffffffffffff16908060020160009054906101000a900473ffffffffffffffffffffffffffffffffffffffff16908060030180546101d390611881565b80601f01602080910402602001604051908101604052809291908181526020018280546101ff90611881565b801561024c5780601f106102215761010080835404028352916020019161024c565b820191906000526020600020905b81548152906001019060200180831161022f57829003601f168201915b5050505050908060040160009054906101000a900460ff16908060050160405180604001604052908160008201805461028490611881565b80601f01602080910402602001604051908101604052809291908181526020018280546102b090611881565b80156102fd5780601f106102d2576101008083540402835291602001916102fd565b820191906000526020600020905b8154815290600101906020018083116102e057829003601f168201915b50505050508152602001600182015481525050905086565b60015481565b60008054906101000a900473ffffffffffffffffffffffffffffffffffffffff1673ffffffffffffffffffffffffffffffffffffffff1663aec37eb3336040518263ffffffff1660e01b815260040161037491906118b2565b602060405180830381865afa158015610391573d6000803e3d6000fd5b505050506040513d601f19601f820116820180604052508101906103b591906118e2565b6103f4576040517f08c379a00000000000000000000000000000000000000000000000000000000081526004016103eb9061195b565b60405180910390fd5b3373ffffffffffffffffffffffffffffffffffffffff166002600085815260200190815260200160002060010160009054906101000a900473ffffffffffffffffffffffffffffffffffffffff1673ffffffffffffffffffffffffffffffffffffffff1614610498576040517f08c379a000000000000000000000000000000000000000000000000000000000815260040161048f906119ed565b60405180910390fd5b600060048111156104ac576104ab6113b7565b5b6002600085815260200190815260200160002060040160009054906101000a900460ff1660048111156104e2576104e16113b7565b5b14610522576040517f08c379a000000000000000000000000000000000000000000000000000000000815260040161051990611a7f565b60405180910390fd5b81156105e15760016002600085815260200190815260200160002060040160006101000a81548160ff02191690836004811115610562576105616113b7565b5b02179055507f3b5e1de666723967fbdd95dd4c2c359769ab6fa1eed327c3fb4e9a53123bc0008360026000600154815260200190815260200160002060000160009054906101000a900473ffffffffffffffffffffffffffffffffffffffff1633426040516105d49493929190611a9f565b60405180910390a161069b565b6002806000600154815260200190815260200160002060040160006101000a81548160ff0219169083600481111561061c5761061b6113b7565b5b02179055507f206a4a2110fab9a1b539a22b17781fa7c849034b2091f2815171e4a2438c50fd60015460026000600154815260200190815260200160002060000160009054906101000a900473ffffffffffffffffffffffffffffffffffffffff16338442604051610692959493929190611ae4565b60405180910390a15b505050565b606060008054906101000a900473ffffffffffffffffffffffffffffffffffffffff1673ffffffffffffffffffffffffffffffffffffffff1663aec37eb3336040518263ffffffff1660e01b81526004016106fb91906118b2565b602060405180830381865afa158015610718573d6000803e3d6000fd5b505050506040513d601f19601f8201168201806040525081019061073c91906118e2565b61077b576040517f08c379a00000000000000000000000000000000000000000000000000000000081526004016107729061195b565b60405180910390fd5b6000600481111561078f5761078e6113b7565b5b6002600084815260200190815260200160002060040160009054906101000a900460ff1660048111156107c5576107c46113b7565b5b14610805576040517f08c379a00000000000000000000000000000000000000000000000000000000081526004016107fc90611bb0565b60405180910390fd5b3373ffffffffffffffffffffffffffffffffffffffff166002600084815260200190815260200160002060010160009054906101000a900473ffffffffffffffffffffffffffffffffffffffff1673ffffffffffffffffffffffffffffffffffffffff16146108a9576040517f08c379a00000000000000000000000000000000000000000000000000000000081526004016108a090611c42565b60405180910390fd5b7f4218cf8b15fe219a8a21385e0e5ded40b1fd32855d7f5d2241db9f1ced38f06e8260026000600154815260200190815260200160002060000160009054906101000a900473ffffffffffffffffffffffffffffffffffffffff1633426040516109169493929190611a9f565b60405180910390a160026000838152602001908152602001600020600301805461093f90611881565b80601f016020809104026020016040519081016040528092919081815260200182805461096b90611881565b80156109b85780601f1061098d576101008083540402835291602001916109b8565b820191906000526020600020905b81548152906001019060200180831161099b57829003601f168201915b50505050509050919050565b60008054906101000a900473ffffffffffffffffffffffffffffffffffffffff1673ffffffffffffffffffffffffffffffffffffffff1663aec37eb3336040518263ffffffff1660e01b8152600401610a1d91906118b2565b602060405180830381865afa158015610a3a573d6000803e3d6000fd5b505050506040513d601f19601f82011682018060405250810190610a5e91906118e2565b610a9d576040517f08c379a0000000000000000000000000000000000000000000000000000000008152600401610a949061195b565b60405180910390fd5b3373ffffffffffffffffffffffffffffffffffffffff166002600084815260200190815260200160002060010160009054906101000a900473ffffffffffffffffffffffffffffffffffffffff1673ffffffffffffffffffffffffffffffffffffffff1614610b41576040517f08c379a0000000000000000000000000000000000000000000000000000000008152600401610b38906119ed565b60405180910390fd5b60016004811115610b5557610b546113b7565b5b6002600084815260200190815260200160002060040160009054906101000a900460ff166004811115610b8b57610b8a6113b7565b5b14610bcb576040517f08c379a0000000000000000000000000000000000000000000000000000000008152600401610bc290611cd4565b60405180910390fd5b80600260008481526020019081526020016000206005016000019080519060200190610bf89291906111c3565b5042600260008481526020019081526020016000206005016001018190555060036002600084815260200190815260200160002060040160006101000a81548160ff02191690836004811115610c5157610c506113b7565b5b02179055507f392f1fd2cff454cd6fcd14f516c11a0400a83dd3e60dba0d23765ebc067bac9b826002600085815260200190815260200160002060000160009054906101000a900473ffffffffffffffffffffffffffffffffffffffff163342604051610cc19493929190611a9f565b60405180910390a15050565b60008054906101000a900473ffffffffffffffffffffffffffffffffffffffff1673ffffffffffffffffffffffffffffffffffffffff166382f7d392336040518263ffffffff1660e01b8152600401610d2691906118b2565b602060405180830381865afa158015610d43573d6000803e3d6000fd5b505050506040513d601f19601f82011682018060405250810190610d6791906118e2565b610da6576040517f08c379a0000000000000000000000000000000000000000000000000000000008152600401610d9d90611d40565b60405180910390fd5b60008054906101000a900473ffffffffffffffffffffffffffffffffffffffff1673ffffffffffffffffffffffffffffffffffffffff1663aec37eb3846040518263ffffffff1660e01b8152600401610dff91906118b2565b602060405180830381865afa158015610e1c573d6000803e3d6000fd5b505050506040513d601f19601f82011682018060405250810190610e4091906118e2565b610e7f576040517f08c379a0000000000000000000000000000000000000000000000000000000008152600401610e7690611dac565b60405180910390fd5b60008054906101000a900473ffffffffffffffffffffffffffffffffffffffff1673ffffffffffffffffffffffffffffffffffffffff1663a0406ce2836040518263ffffffff1660e01b8152600401610ed891906118b2565b602060405180830381865afa158015610ef5573d6000803e3d6000fd5b505050506040513d601f19601f82011682018060405250810190610f1991906118e2565b610f58576040517f08c379a0000000000000000000000000000000000000000000000000000000008152600401610f4f90611e18565b60405180910390fd5b60016000815480929190610f6b90611e67565b91905055506040518060c001604052803373ffffffffffffffffffffffffffffffffffffffff1681526020018473ffffffffffffffffffffffffffffffffffffffff1681526020018373ffffffffffffffffffffffffffffffffffffffff16815260200182815260200160006004811115610fe957610fe86113b7565b5b815260200160405180604001604052806040518060200160405280600081525081526020014281525081525060026000600154815260200190815260200160002060008201518160000160006101000a81548173ffffffffffffffffffffffffffffffffffffffff021916908373ffffffffffffffffffffffffffffffffffffffff16021790555060208201518160010160006101000a81548173ffffffffffffffffffffffffffffffffffffffff021916908373ffffffffffffffffffffffffffffffffffffffff16021790555060408201518160020160006101000a81548173ffffffffffffffffffffffffffffffffffffffff021916908373ffffffffffffffffffffffffffffffffffffffff160217905550606082015181600301908051906020019061111b9291906111c3565b5060808201518160040160006101000a81548160ff02191690836004811115611147576111466113b7565b5b021790555060a08201518160050160008201518160000190805190602001906111719291906111c3565b506020820151816001015550509050507f75846bc0efc34af460e8d4d7a9d2632cb494a6344899a2f11a739745842ba2e860015433856040516111b693929190611eaf565b60405180910390a1505050565b8280546111cf90611881565b90600052602060002090601f0160209004810192826111f15760008555611238565b82601f1061120a57805160ff1916838001178555611238565b82800160010185558215611238579182015b8281111561123757825182559160200191906001019061121c565b5b5090506112459190611249565b5090565b5b8082111561126257600081600090555060010161124a565b5090565b6000604051905090565b600080fd5b600080fd5b6000819050919050565b61128d8161127a565b811461129857600080fd5b50565b6000813590506112aa81611284565b92915050565b6000602082840312156112c6576112c5611270565b5b60006112d48482850161129b565b91505092915050565b600073ffffffffffffffffffffffffffffffffffffffff82169050919050565b6000611308826112dd565b9050919050565b611318816112fd565b82525050565b600081519050919050565b600082825260208201905092915050565b60005b8381101561135857808201518184015260208101905061133d565b83811115611367576000848401525b50505050565b6000601f19601f8301169050919050565b60006113898261131e565b6113938185611329565b93506113a381856020860161133a565b6113ac8161136d565b840191505092915050565b7f4e487b7100000000000000000000000000000000000000000000000000000000600052602160045260246000fd5b600581106113f7576113f66113b7565b5b50565b6000819050611408826113e6565b919050565b6000611418826113fa565b9050919050565b6114288161140d565b82525050565b600082825260208201905092915050565b600061144a8261131e565b611454818561142e565b935061146481856020860161133a565b61146d8161136d565b840191505092915050565b6114818161127a565b82525050565b600060408301600083015184820360008601526114a4828261143f565b91505060208301516114b96020860182611478565b508091505092915050565b600060c0820190506114d9600083018961130f565b6114e6602083018861130f565b6114f3604083018761130f565b8181036060830152611505818661137e565b9050611514608083018561141f565b81810360a08301526115268184611487565b9050979650505050505050565b61153c8161127a565b82525050565b60006020820190506115576000830184611533565b92915050565b60008115159050919050565b6115728161155d565b811461157d57600080fd5b50565b60008135905061158f81611569565b92915050565b600080fd5b600080fd5b7f4e487b7100000000000000000000000000000000000000000000000000000000600052604160045260246000fd5b6115d78261136d565b810181811067ffffffffffffffff821117156115f6576115f561159f565b5b80604052505050565b6000611609611266565b905061161582826115ce565b919050565b600067ffffffffffffffff8211156116355761163461159f565b5b61163e8261136d565b9050602081019050919050565b82818337600083830152505050565b600061166d6116688461161a565b6115ff565b9050828152602081018484840111156116895761168861159a565b5b61169484828561164b565b509392505050565b600082601f8301126116b1576116b0611595565b5b81356116c184826020860161165a565b91505092915050565b6000806000606084860312156116e3576116e2611270565b5b60006116f18682870161129b565b935050602061170286828701611580565b925050604084013567ffffffffffffffff81111561172357611722611275565b5b61172f8682870161169c565b9150509250925092565b60006020820190508181036000830152611753818461137e565b905092915050565b6000806040838503121561177257611771611270565b5b60006117808582860161129b565b925050602083013567ffffffffffffffff8111156117a1576117a0611275565b5b6117ad8582860161169c565b9150509250929050565b6117c0816112fd565b81146117cb57600080fd5b50565b6000813590506117dd816117b7565b92915050565b6000806000606084860312156117fc576117fb611270565b5b600061180a868287016117ce565b935050602061181b868287016117ce565b925050604084013567ffffffffffffffff81111561183c5761183b611275565b5b6118488682870161169c565b9150509250925092565b7f4e487b7100000000000000000000000000000000000000000000000000000000600052602260045260246000fd5b6000600282049050600182168061189957607f821691505b6020821081036118ac576118ab611852565b5b50919050565b60006020820190506118c7600083018461130f565b92915050565b6000815190506118dc81611569565b92915050565b6000602082840312156118f8576118f7611270565b5b6000611906848285016118cd565b91505092915050565b7f42752069736c656d692074656163686572207961706162696c69722e00000000600082015250565b6000611945601c83611329565b91506119508261190f565b602082019050919050565b6000602082019050818103600083015261197481611938565b9050919050565b7f59616c6e697a6361206b656e64696e697a65206174616e616e2062656c67657960008201527f6520756c61736162696c69727369696e697a0000000000000000000000000000602082015250565b60006119d7603283611329565b91506119e28261197b565b604082019050919050565b60006020820190508181036000830152611a06816119ca565b9050919050565b7f7265666572616e73696e2079656e69206f6c7573747572756c6d75732064757260008201527f756d6461206f6c6d61736920676572656b697200000000000000000000000000602082015250565b6000611a69603383611329565b9150611a7482611a0d565b604082019050919050565b60006020820190508181036000830152611a9881611a5c565b9050919050565b6000608082019050611ab46000830187611533565b611ac1602083018661130f565b611ace604083018561130f565b611adb6060830184611533565b95945050505050565b600060a082019050611af96000830188611533565b611b06602083018761130f565b611b13604083018661130f565b8181036060830152611b25818561137e565b9050611b346080830184611533565b9695505050505050565b7f5265666572616e7320647572756d756e756e2043524541544544206f6c6d617360008201527f6920676572656b69720000000000000000000000000000000000000000000000602082015250565b6000611b9a602983611329565b9150611ba582611b3e565b604082019050919050565b60006020820190508181036000830152611bc981611b8d565b9050919050565b7f59616c6e697a6361206b656e64696e697a65206174616e616e2062656c67657960008201527f6520756c61736162696c697273696e697a000000000000000000000000000000602082015250565b6000611c2c603183611329565b9150611c3782611bd0565b604082019050919050565b60006020820190508181036000830152611c5b81611c1f565b9050919050565b7f7265666572616e73696e206b6162756c206564696c6d697320647572756d646160008201527f206f6c6d61736920676572656b69720000000000000000000000000000000000602082015250565b6000611cbe602f83611329565b9150611cc982611c62565b604082019050919050565b60006020820190508181036000830152611ced81611cb1565b9050919050565b7f42752069736c656d692073747564656e74207961706162696c69722e00000000600082015250565b6000611d2a601c83611329565b9150611d3582611cf4565b602082019050919050565b60006020820190508181036000830152611d5981611d1d565b9050919050565b7f546561636865722061646472657373206e6f74207265636f676e697a65642e00600082015250565b6000611d96601f83611329565b9150611da182611d60565b602082019050919050565b60006020820190508181036000830152611dc581611d89565b9050919050565b7f436f6d70616e792061646472657373206e6f74207265636f676e697a65642e00600082015250565b6000611e02601f83611329565b9150611e0d82611dcc565b602082019050919050565b60006020820190508181036000830152611e3181611df5565b9050919050565b7f4e487b7100000000000000000000000000000000000000000000000000000000600052601160045260246000fd5b6000611e728261127a565b91507fffffffffffffffffffffffffffffffffffffffffffffffffffffffffffffffff8203611ea457611ea3611e38565b5b600182019050919050565b6000606082019050611ec46000830186611533565b611ed1602083018561130f565b611ede604083018461130f565b94935050505056fea2646970667358221220de24b51b4f53ca23521ae0ae9e20b9a3c9e5752f5d2d0ee6f067ff7b9ef8380264736f6c634300080d0033",
  "immutableReferences": {},
  "source": "// SPDX-License-Identifier: GPL-3.0\r\npragma solidity >=0.8.0 <0.9.0;\r\nimport \"./Registration.sol\";\r\n\r\ncontract LetterProposal{\r\n    Registration registrationContract;\r\n    uint public letterID;\r\n    enum status {\r\n        Created,\r\n        TeacherAdmitted,\r\n        TeacherRejected,\r\n        TeacherCompleted,\r\n        SeenByCompany\r\n    } \r\n    struct LetterDocument{\r\n        string letterHash;\r\n        uint writtenDate; \r\n    }\r\n    struct letterType{\r\n        address student;\r\n        address teacher;\r\n        address company;\r\n        string proposalDescription;\r\n        status letterStatus;\r\n        LetterDocument letterDocument;\r\n\r\n    }\r\n    constructor(address registrationAddress)  {\r\n        registrationContract=Registration(registrationAddress);\r\n        letterID=uint(keccak256(abi.encodePacked(msg.sender,block.timestamp,address(this))));\r\n\r\n    }\r\n    mapping(uint=>letterType) public referenceLetters;\r\n    \r\n    event LetterCreated(uint letterID,address student,address teacher);\r\n\r\n    event LetterEvaluated(uint letterID,address student,address teacher,uint evaluatedDate);\r\n\r\n    event LetterAdmitted(uint letterID, address student,address teacher,uint admittedDate);\r\n\r\n    event LetterRejected(uint letterID, address student,address teacher,string rejectReason,uint rejectedDate);\r\n\r\n    event LetterAdded(uint letterID, address student,address teacher,uint addedDate);\r\n\r\n    event LetterSeenByCompany(uint letterID, address student, address teacher,address company, uint seenDate );\r\n    \r\n\r\n    modifier onlyStudent{\r\n      require(registrationContract.isStudent(msg.sender),\r\n      \"Bu islemi student yapabilir.\"\r\n      );\r\n      _;\r\n    }   \r\n    \r\n    modifier onlyTeacher{\r\n      require(registrationContract.isTeacher(msg.sender),\r\n      \"Bu islemi teacher yapabilir.\"\r\n      );\r\n      _;\r\n    }   \r\n    modifier onlyCompany{\r\n      require(registrationContract.isCompany(msg.sender),\r\n      \"Bu islemi company yapabilir.\"\r\n      );\r\n      _;\r\n    }\r\n\r\n    \r\n    function newLetterProposal(address _teacherAddress,address _companyAddress,string memory _proposalDescription) public onlyStudent {\r\n        require(registrationContract.isTeacher(_teacherAddress),\r\n        \"Teacher address not recognized.\"\r\n        );\r\n          require(registrationContract.isCompany(_companyAddress),\r\n        \"Company address not recognized.\"\r\n        );\r\n        letterID++;\r\n       \r\n        referenceLetters[letterID]=letterType(msg.sender,_teacherAddress,_companyAddress,_proposalDescription,status.Created,LetterDocument('',block.timestamp));\r\n        \r\n        emit LetterCreated(letterID, msg.sender,_teacherAddress);\r\n\r\n    }\r\n    \r\n    function letterFirstEvaluate(uint _letterID) public onlyTeacher  returns(string memory) {\r\n        require(referenceLetters[_letterID].letterStatus==status.Created,\r\n        \"Referans durumunun CREATED olmasi gerekir\"\r\n        );\r\n        require(referenceLetters[_letterID].teacher==msg.sender,\r\n        \"Yalnizca kendinize atanan belgeye ulasabilirsiniz\"\r\n        );\r\n  \r\n        emit LetterEvaluated(_letterID, referenceLetters[letterID].student,msg.sender,block.timestamp);\r\n        return referenceLetters[_letterID].proposalDescription;\r\n\r\n    }\r\n\r\n    function letterAcceptOrReject(uint _letterID, bool accepted,string memory rejectReason) public onlyTeacher{\r\n         require(referenceLetters[_letterID].teacher==msg.sender,\r\n        \"Yalnizca kendinize atanan belgeye ulasabilirsiiniz\"\r\n        );\r\n        require(referenceLetters[_letterID].letterStatus==status.Created,\r\n        \"referansin yeni olusturulmus durumda olmasi gerekir\"\r\n        );\r\n        if(accepted){\r\n            referenceLetters[_letterID].letterStatus=status.TeacherAdmitted;\r\n      \r\n          emit LetterAdmitted( _letterID,  referenceLetters[letterID].student, msg.sender, block.timestamp);\r\n        }\r\n        else{\r\n            referenceLetters[letterID].letterStatus=status.TeacherRejected;\r\n                emit LetterRejected( letterID,  referenceLetters[letterID].student, msg.sender, rejectReason,block.timestamp);\r\n        }\r\n    }\r\n    \r\n    \r\n    function addLetter(uint _letterID, string memory _letterHash ) public onlyTeacher{\r\n        require(referenceLetters[_letterID].teacher==msg.sender,\r\n        \"Yalnizca kendinize atanan belgeye ulasabilirsiiniz\"\r\n        );\r\n       require(referenceLetters[_letterID].letterStatus==status.TeacherAdmitted,\r\n        \"referansin kabul edilmis durumda olmasi gerekir\"\r\n        );\r\n        referenceLetters[_letterID].letterDocument.letterHash=_letterHash;\r\n          referenceLetters[_letterID].letterDocument.writtenDate=block.timestamp;\r\n        referenceLetters[_letterID].letterStatus=status.TeacherCompleted;\r\n           emit LetterAdded( _letterID,  referenceLetters[_letterID].student, msg.sender, block.timestamp);\r\n\r\n    }\r\n    \r\n\r\n    \r\n\r\n} ",
  "sourcePath": "D:\\dapps\\refrenceLetter\\contracts\\LetterProposal.sol",
  "compiler": {
    "name": "solc",
    "version": "0.8.13+commit.abaa5c0e.Emscripten.clang"
  },
  "schemaVersion": "3.4.7",
  "updatedAt": "2022-06-10T18:24:36.352Z",
  "devdoc": {
    "kind": "dev",
    "methods": {},
    "version": 1
  },
  "userdoc": {
    "kind": "user",
    "methods": {},
    "version": 1
  }
}