{
  "contractName": "Registration",
  "abi": [
    {
      "inputs": [
        {
          "internalType": "address",
          "name": "yok",
          "type": "address"
        },
        {
          "internalType": "address",
          "name": "tobb",
          "type": "address"
        }
      ],
      "stateMutability": "nonpayable",
      "type": "constructor"
    },
    {
      "anonymous": false,
      "inputs": [
        {
          "indexed": false,
          "internalType": "address",
          "name": "_companyAddress",
          "type": "address"
        },
        {
          "indexed": false,
          "internalType": "string",
          "name": "_name",
          "type": "string"
        },
        {
          "indexed": false,
          "internalType": "uint256",
          "name": "_identityNumber",
          "type": "uint256"
        },
        {
          "indexed": false,
          "internalType": "string",
          "name": "_country",
          "type": "string"
        }
      ],
      "name": "CompanyRegisteredLog",
      "type": "event"
    },
    {
      "anonymous": false,
      "inputs": [
        {
          "indexed": false,
          "internalType": "address",
          "name": "_studentAddress",
          "type": "address"
        },
        {
          "indexed": false,
          "internalType": "string",
          "name": "_name",
          "type": "string"
        },
        {
          "indexed": false,
          "internalType": "string",
          "name": "_surname",
          "type": "string"
        },
        {
          "indexed": false,
          "internalType": "string",
          "name": "_department",
          "type": "string"
        },
        {
          "indexed": false,
          "internalType": "string",
          "name": "_university",
          "type": "string"
        }
      ],
      "name": "StudentRegisteredLog",
      "type": "event"
    },
    {
      "anonymous": false,
      "inputs": [
        {
          "indexed": false,
          "internalType": "address",
          "name": "_teacherAddress",
          "type": "address"
        },
        {
          "indexed": false,
          "internalType": "string",
          "name": "_name",
          "type": "string"
        },
        {
          "indexed": false,
          "internalType": "string",
          "name": "_surname",
          "type": "string"
        },
        {
          "indexed": false,
          "internalType": "string",
          "name": "_department",
          "type": "string"
        },
        {
          "indexed": false,
          "internalType": "string",
          "name": "_university",
          "type": "string"
        },
        {
          "indexed": false,
          "internalType": "enum Registration.Unvan",
          "name": "_unvan",
          "type": "uint8"
        }
      ],
      "name": "TeacherRegisteredLog",
      "type": "event"
    },
    {
      "inputs": [
        {
          "internalType": "address",
          "name": "",
          "type": "address"
        }
      ],
      "name": "companies",
      "outputs": [
        {
          "internalType": "bool",
          "name": "status",
          "type": "bool"
        },
        {
          "internalType": "string",
          "name": "country",
          "type": "string"
        },
        {
          "internalType": "uint256",
          "name": "identityNumber",
          "type": "uint256"
        },
        {
          "internalType": "string",
          "name": "name",
          "type": "string"
        }
      ],
      "stateMutability": "view",
      "type": "function"
    },
    {
      "inputs": [
        {
          "internalType": "address",
          "name": "",
          "type": "address"
        }
      ],
      "name": "students",
      "outputs": [
        {
          "internalType": "bool",
          "name": "status",
          "type": "bool"
        },
        {
          "internalType": "string",
          "name": "university",
          "type": "string"
        },
        {
          "internalType": "string",
          "name": "department",
          "type": "string"
        },
        {
          "internalType": "string",
          "name": "name",
          "type": "string"
        },
        {
          "internalType": "string",
          "name": "surname",
          "type": "string"
        }
      ],
      "stateMutability": "view",
      "type": "function"
    },
    {
      "inputs": [
        {
          "internalType": "address",
          "name": "",
          "type": "address"
        }
      ],
      "name": "teachers",
      "outputs": [
        {
          "internalType": "bool",
          "name": "status",
          "type": "bool"
        },
        {
          "internalType": "string",
          "name": "university",
          "type": "string"
        },
        {
          "internalType": "string",
          "name": "department",
          "type": "string"
        },
        {
          "internalType": "enum Registration.Unvan",
          "name": "unvan",
          "type": "uint8"
        },
        {
          "internalType": "string",
          "name": "name",
          "type": "string"
        },
        {
          "internalType": "string",
          "name": "surname",
          "type": "string"
        }
      ],
      "stateMutability": "view",
      "type": "function"
    },
    {
      "inputs": [
        {
          "internalType": "address",
          "name": "_address",
          "type": "address"
        }
      ],
      "name": "isStudent",
      "outputs": [
        {
          "internalType": "bool",
          "name": "",
          "type": "bool"
        }
      ],
      "stateMutability": "view",
      "type": "function"
    },
    {
      "inputs": [
        {
          "internalType": "address",
          "name": "_address",
          "type": "address"
        }
      ],
      "name": "isTeacher",
      "outputs": [
        {
          "internalType": "bool",
          "name": "",
          "type": "bool"
        }
      ],
      "stateMutability": "view",
      "type": "function"
    },
    {
      "inputs": [
        {
          "internalType": "address",
          "name": "_address",
          "type": "address"
        }
      ],
      "name": "isCompany",
      "outputs": [
        {
          "internalType": "bool",
          "name": "",
          "type": "bool"
        }
      ],
      "stateMutability": "view",
      "type": "function"
    },
    {
      "inputs": [
        {
          "internalType": "address",
          "name": "_studentAddress",
          "type": "address"
        },
        {
          "internalType": "string",
          "name": "_name",
          "type": "string"
        },
        {
          "internalType": "string",
          "name": "_surname",
          "type": "string"
        },
        {
          "internalType": "string",
          "name": "_department",
          "type": "string"
        },
        {
          "internalType": "string",
          "name": "_university",
          "type": "string"
        }
      ],
      "name": "registerStudent",
      "outputs": [],
      "stateMutability": "nonpayable",
      "type": "function"
    },
    {
      "inputs": [
        {
          "internalType": "address",
          "name": "_teacherAddress",
          "type": "address"
        },
        {
          "internalType": "string",
          "name": "_name",
          "type": "string"
        },
        {
          "internalType": "string",
          "name": "_surname",
          "type": "string"
        },
        {
          "internalType": "string",
          "name": "_department",
          "type": "string"
        },
        {
          "internalType": "string",
          "name": "_university",
          "type": "string"
        },
        {
          "internalType": "enum Registration.Unvan",
          "name": "_unvan",
          "type": "uint8"
        }
      ],
      "name": "registerTeacher",
      "outputs": [],
      "stateMutability": "nonpayable",
      "type": "function"
    },
    {
      "inputs": [
        {
          "internalType": "address",
          "name": "_companyAddress",
          "type": "address"
        },
        {
          "internalType": "string",
          "name": "_name",
          "type": "string"
        },
        {
          "internalType": "uint256",
          "name": "_identityNumber",
          "type": "uint256"
        },
        {
          "internalType": "string",
          "name": "_country",
          "type": "string"
        }
      ],
      "name": "registerCompany",
      "outputs": [],
      "stateMutability": "nonpayable",
      "type": "function"
    }
  ],
  "bytecode": "0x60806040523480156200001157600080fd5b506040516200200d3803806200200d83398181016040528101906200003791906200012a565b816000806101000a81548173ffffffffffffffffffffffffffffffffffffffff021916908373ffffffffffffffffffffffffffffffffffffffff16021790555080600160006101000a81548173ffffffffffffffffffffffffffffffffffffffff021916908373ffffffffffffffffffffffffffffffffffffffff160217905550505062000171565b600080fd5b600073ffffffffffffffffffffffffffffffffffffffff82169050919050565b6000620000f282620000c5565b9050919050565b6200010481620000e5565b81146200011057600080fd5b50565b6000815190506200012481620000f9565b92915050565b60008060408385031215620001445762000143620000c0565b5b6000620001548582860162000113565b9250506020620001678582860162000113565b9150509250929050565b611e8c80620001816000396000f3fe608060405234801561001057600080fd5b50600436106100935760003560e01c8063a0406ce211610066578063a0406ce214610133578063a6c807a914610163578063aec37eb314610197578063b7af520f146101c7578063f0a47f78146101e357610093565b8063355e6ce8146100985780635817e9d8146100cb578063651ab560146100e757806382f7d39214610103575b600080fd5b6100b260048036038101906100ad91906113b4565b610218565b6040516100c294939291906114ae565b60405180910390f35b6100e560048036038101906100e09190611636565b610365565b005b61010160048036038101906100fc919061174d565b610680565b005b61011d600480360381019061011891906113b4565b610933565b60405161012a91906117ec565b60405180910390f35b61014d600480360381019061014891906113b4565b61098c565b60405161015a91906117ec565b60405180910390f35b61017d600480360381019061017891906113b4565b6109e5565b60405161018e959493929190611807565b60405180910390f35b6101b160048036038101906101ac91906113b4565b610c48565b6040516101be91906117ec565b60405180910390f35b6101e160048036038101906101dc919061189b565b610ca1565b005b6101fd60048036038101906101f891906113b4565b611029565b60405161020f96959493929190611a0f565b60405180910390f35b60036020528060005260406000206000915090508060000160009054906101000a900460ff169080600101805461024e90611abb565b80601f016020809104026020016040519081016040528092919081815260200182805461027a90611abb565b80156102c75780601f1061029c576101008083540402835291602001916102c7565b820191906000526020600020905b8154815290600101906020018083116102aa57829003601f168201915b5050505050908060020154908060030180546102e290611abb565b80601f016020809104026020016040519081016040528092919081815260200182805461030e90611abb565b801561035b5780601f106103305761010080835404028352916020019161035b565b820191906000526020600020905b81548152906001019060200180831161033e57829003601f168201915b5050505050905084565b60008054906101000a900473ffffffffffffffffffffffffffffffffffffffff1673ffffffffffffffffffffffffffffffffffffffff163373ffffffffffffffffffffffffffffffffffffffff16146103f3576040517f08c379a00000000000000000000000000000000000000000000000000000000081526004016103ea90611b38565b60405180910390fd5b600460008673ffffffffffffffffffffffffffffffffffffffff1673ffffffffffffffffffffffffffffffffffffffff16815260200190815260200160002060000160009054906101000a900460ff1615610483576040517f08c379a000000000000000000000000000000000000000000000000000000000815260040161047a90611ba4565b60405180910390fd5b6001600460008773ffffffffffffffffffffffffffffffffffffffff1673ffffffffffffffffffffffffffffffffffffffff16815260200190815260200160002060000160006101000a81548160ff02191690831515021790555083600460008773ffffffffffffffffffffffffffffffffffffffff1673ffffffffffffffffffffffffffffffffffffffff168152602001908152602001600020600301908051906020019061053492919061129f565b5082600460008773ffffffffffffffffffffffffffffffffffffffff1673ffffffffffffffffffffffffffffffffffffffff168152602001908152602001600020600401908051906020019061058b92919061129f565b5080600460008773ffffffffffffffffffffffffffffffffffffffff1673ffffffffffffffffffffffffffffffffffffffff16815260200190815260200160002060010190805190602001906105e292919061129f565b5081600460008773ffffffffffffffffffffffffffffffffffffffff1673ffffffffffffffffffffffffffffffffffffffff168152602001908152602001600020600201908051906020019061063992919061129f565b507f13f441afac2c125ba7988aaa6d3cfa2a7bd1e299b6a65420607dff92271d0a368585858585604051610671959493929190611bd3565b60405180910390a15050505050565b600160009054906101000a900473ffffffffffffffffffffffffffffffffffffffff1673ffffffffffffffffffffffffffffffffffffffff163373ffffffffffffffffffffffffffffffffffffffff1614610710576040517f08c379a000000000000000000000000000000000000000000000000000000000815260040161070790611c8e565b60405180910390fd5b600360008573ffffffffffffffffffffffffffffffffffffffff1673ffffffffffffffffffffffffffffffffffffffff16815260200190815260200160002060000160009054906101000a900460ff16156107a0576040517f08c379a000000000000000000000000000000000000000000000000000000000815260040161079790611cfa565b60405180910390fd5b6001600360008673ffffffffffffffffffffffffffffffffffffffff1673ffffffffffffffffffffffffffffffffffffffff16815260200190815260200160002060000160006101000a81548160ff02191690831515021790555082600360008673ffffffffffffffffffffffffffffffffffffffff1673ffffffffffffffffffffffffffffffffffffffff168152602001908152602001600020600301908051906020019061085192919061129f565b5080600360008673ffffffffffffffffffffffffffffffffffffffff1673ffffffffffffffffffffffffffffffffffffffff16815260200190815260200160002060010190805190602001906108a892919061129f565b5081600360008673ffffffffffffffffffffffffffffffffffffffff1673ffffffffffffffffffffffffffffffffffffffff168152602001908152602001600020600201819055507fd9ebdc6ce92cfdfcf83b357e9e6b94fe6ba1f1696022fd5de9c8600e9db4a1a7848484846040516109259493929190611d1a565b60405180910390a150505050565b6000600460008373ffffffffffffffffffffffffffffffffffffffff1673ffffffffffffffffffffffffffffffffffffffff16815260200190815260200160002060000160009054906101000a900460ff169050919050565b6000600360008373ffffffffffffffffffffffffffffffffffffffff1673ffffffffffffffffffffffffffffffffffffffff16815260200190815260200160002060000160009054906101000a900460ff169050919050565b60046020528060005260406000206000915090508060000160009054906101000a900460ff1690806001018054610a1b90611abb565b80601f0160208091040260200160405190810160405280929190818152602001828054610a4790611abb565b8015610a945780601f10610a6957610100808354040283529160200191610a94565b820191906000526020600020905b815481529060010190602001808311610a7757829003601f168201915b505050505090806002018054610aa990611abb565b80601f0160208091040260200160405190810160405280929190818152602001828054610ad590611abb565b8015610b225780601f10610af757610100808354040283529160200191610b22565b820191906000526020600020905b815481529060010190602001808311610b0557829003601f168201915b505050505090806003018054610b3790611abb565b80601f0160208091040260200160405190810160405280929190818152602001828054610b6390611abb565b8015610bb05780601f10610b8557610100808354040283529160200191610bb0565b820191906000526020600020905b815481529060010190602001808311610b9357829003601f168201915b505050505090806004018054610bc590611abb565b80601f0160208091040260200160405190810160405280929190818152602001828054610bf190611abb565b8015610c3e5780601f10610c1357610100808354040283529160200191610c3e565b820191906000526020600020905b815481529060010190602001808311610c2157829003601f168201915b5050505050905085565b6000600260008373ffffffffffffffffffffffffffffffffffffffff1673ffffffffffffffffffffffffffffffffffffffff16815260200190815260200160002060000160009054906101000a900460ff169050919050565b60008054906101000a900473ffffffffffffffffffffffffffffffffffffffff1673ffffffffffffffffffffffffffffffffffffffff163373ffffffffffffffffffffffffffffffffffffffff1614610d2f576040517f08c379a0000000000000000000000000000000000000000000000000000000008152600401610d2690611b38565b60405180910390fd5b600260008773ffffffffffffffffffffffffffffffffffffffff1673ffffffffffffffffffffffffffffffffffffffff16815260200190815260200160002060000160009054906101000a900460ff1615610dbf576040517f08c379a0000000000000000000000000000000000000000000000000000000008152600401610db690611db9565b60405180910390fd5b6001600260008873ffffffffffffffffffffffffffffffffffffffff1673ffffffffffffffffffffffffffffffffffffffff16815260200190815260200160002060000160006101000a81548160ff02191690831515021790555080600260008873ffffffffffffffffffffffffffffffffffffffff1673ffffffffffffffffffffffffffffffffffffffff16815260200190815260200160002060030160006101000a81548160ff02191690836003811115610e7f57610e7e611998565b5b021790555084600260008873ffffffffffffffffffffffffffffffffffffffff1673ffffffffffffffffffffffffffffffffffffffff1681526020019081526020016000206004019080519060200190610eda92919061129f565b5083600260008873ffffffffffffffffffffffffffffffffffffffff1673ffffffffffffffffffffffffffffffffffffffff1681526020019081526020016000206005019080519060200190610f3192919061129f565b5081600260008873ffffffffffffffffffffffffffffffffffffffff1673ffffffffffffffffffffffffffffffffffffffff1681526020019081526020016000206001019080519060200190610f8892919061129f565b5082600260008873ffffffffffffffffffffffffffffffffffffffff1673ffffffffffffffffffffffffffffffffffffffff1681526020019081526020016000206002019080519060200190610fdf92919061129f565b507ff95bfc7ae68c507e95bd2f01348aa3231b2ba812f97f95eb301f45937e7c7f0386868686868660405161101996959493929190611dd9565b60405180910390a1505050505050565b60026020528060005260406000206000915090508060000160009054906101000a900460ff169080600101805461105f90611abb565b80601f016020809104026020016040519081016040528092919081815260200182805461108b90611abb565b80156110d85780601f106110ad576101008083540402835291602001916110d8565b820191906000526020600020905b8154815290600101906020018083116110bb57829003601f168201915b5050505050908060020180546110ed90611abb565b80601f016020809104026020016040519081016040528092919081815260200182805461111990611abb565b80156111665780601f1061113b57610100808354040283529160200191611166565b820191906000526020600020905b81548152906001019060200180831161114957829003601f168201915b5050505050908060030160009054906101000a900460ff169080600401805461118e90611abb565b80601f01602080910402602001604051908101604052809291908181526020018280546111ba90611abb565b80156112075780601f106111dc57610100808354040283529160200191611207565b820191906000526020600020905b8154815290600101906020018083116111ea57829003601f168201915b50505050509080600501805461121c90611abb565b80601f016020809104026020016040519081016040528092919081815260200182805461124890611abb565b80156112955780601f1061126a57610100808354040283529160200191611295565b820191906000526020600020905b81548152906001019060200180831161127857829003601f168201915b5050505050905086565b8280546112ab90611abb565b90600052602060002090601f0160209004810192826112cd5760008555611314565b82601f106112e657805160ff1916838001178555611314565b82800160010185558215611314579182015b828111156113135782518255916020019190600101906112f8565b5b5090506113219190611325565b5090565b5b8082111561133e576000816000905550600101611326565b5090565b6000604051905090565b600080fd5b600080fd5b600073ffffffffffffffffffffffffffffffffffffffff82169050919050565b600061138182611356565b9050919050565b61139181611376565b811461139c57600080fd5b50565b6000813590506113ae81611388565b92915050565b6000602082840312156113ca576113c961134c565b5b60006113d88482850161139f565b91505092915050565b60008115159050919050565b6113f6816113e1565b82525050565b600081519050919050565b600082825260208201905092915050565b60005b8381101561143657808201518184015260208101905061141b565b83811115611445576000848401525b50505050565b6000601f19601f8301169050919050565b6000611467826113fc565b6114718185611407565b9350611481818560208601611418565b61148a8161144b565b840191505092915050565b6000819050919050565b6114a881611495565b82525050565b60006080820190506114c360008301876113ed565b81810360208301526114d5818661145c565b90506114e4604083018561149f565b81810360608301526114f6818461145c565b905095945050505050565b600080fd5b600080fd5b7f4e487b7100000000000000000000000000000000000000000000000000000000600052604160045260246000fd5b6115438261144b565b810181811067ffffffffffffffff821117156115625761156161150b565b5b80604052505050565b6000611575611342565b9050611581828261153a565b919050565b600067ffffffffffffffff8211156115a1576115a061150b565b5b6115aa8261144b565b9050602081019050919050565b82818337600083830152505050565b60006115d96115d484611586565b61156b565b9050828152602081018484840111156115f5576115f4611506565b5b6116008482856115b7565b509392505050565b600082601f83011261161d5761161c611501565b5b813561162d8482602086016115c6565b91505092915050565b600080600080600060a086880312156116525761165161134c565b5b60006116608882890161139f565b955050602086013567ffffffffffffffff81111561168157611680611351565b5b61168d88828901611608565b945050604086013567ffffffffffffffff8111156116ae576116ad611351565b5b6116ba88828901611608565b935050606086013567ffffffffffffffff8111156116db576116da611351565b5b6116e788828901611608565b925050608086013567ffffffffffffffff81111561170857611707611351565b5b61171488828901611608565b9150509295509295909350565b61172a81611495565b811461173557600080fd5b50565b60008135905061174781611721565b92915050565b600080600080608085870312156117675761176661134c565b5b60006117758782880161139f565b945050602085013567ffffffffffffffff81111561179657611795611351565b5b6117a287828801611608565b93505060406117b387828801611738565b925050606085013567ffffffffffffffff8111156117d4576117d3611351565b5b6117e087828801611608565b91505092959194509250565b600060208201905061180160008301846113ed565b92915050565b600060a08201905061181c60008301886113ed565b818103602083015261182e818761145c565b90508181036040830152611842818661145c565b90508181036060830152611856818561145c565b9050818103608083015261186a818461145c565b90509695505050505050565b6004811061188357600080fd5b50565b60008135905061189581611876565b92915050565b60008060008060008060c087890312156118b8576118b761134c565b5b60006118c689828a0161139f565b965050602087013567ffffffffffffffff8111156118e7576118e6611351565b5b6118f389828a01611608565b955050604087013567ffffffffffffffff81111561191457611913611351565b5b61192089828a01611608565b945050606087013567ffffffffffffffff81111561194157611940611351565b5b61194d89828a01611608565b935050608087013567ffffffffffffffff81111561196e5761196d611351565b5b61197a89828a01611608565b92505060a061198b89828a01611886565b9150509295509295509295565b7f4e487b7100000000000000000000000000000000000000000000000000000000600052602160045260246000fd5b600481106119d8576119d7611998565b5b50565b60008190506119e9826119c7565b919050565b60006119f9826119db565b9050919050565b611a09816119ee565b82525050565b600060c082019050611a2460008301896113ed565b8181036020830152611a36818861145c565b90508181036040830152611a4a818761145c565b9050611a596060830186611a00565b8181036080830152611a6b818561145c565b905081810360a0830152611a7f818461145c565b9050979650505050505050565b7f4e487b7100000000000000000000000000000000000000000000000000000000600052602260045260246000fd5b60006002820490506001821680611ad357607f821691505b602082108103611ae657611ae5611a8c565b5b50919050565b7f53616465636520594f4b2062752069736c656d69207961706162696c69722e00600082015250565b6000611b22601f83611407565b9150611b2d82611aec565b602082019050919050565b60006020820190508181036000830152611b5181611b15565b9050919050565b7f53747564656e742065786973747320616c726561647900000000000000000000600082015250565b6000611b8e601683611407565b9150611b9982611b58565b602082019050919050565b60006020820190508181036000830152611bbd81611b81565b9050919050565b611bcd81611376565b82525050565b600060a082019050611be86000830188611bc4565b8181036020830152611bfa818761145c565b90508181036040830152611c0e818661145c565b90508181036060830152611c22818561145c565b90508181036080830152611c36818461145c565b90509695505050505050565b7f53616465636520544f42422062752069736c656d69207961706162696c69722e600082015250565b6000611c78602083611407565b9150611c8382611c42565b602082019050919050565b60006020820190508181036000830152611ca781611c6b565b9050919050565b7f436f6d70616e792065786973747320616c726561647900000000000000000000600082015250565b6000611ce4601683611407565b9150611cef82611cae565b602082019050919050565b60006020820190508181036000830152611d1381611cd7565b9050919050565b6000608082019050611d2f6000830187611bc4565b8181036020830152611d41818661145c565b9050611d50604083018561149f565b8181036060830152611d62818461145c565b905095945050505050565b7f546561636865722065786973747320616c726561647900000000000000000000600082015250565b6000611da3601683611407565b9150611dae82611d6d565b602082019050919050565b60006020820190508181036000830152611dd281611d96565b9050919050565b600060c082019050611dee6000830189611bc4565b8181036020830152611e00818861145c565b90508181036040830152611e14818761145c565b90508181036060830152611e28818661145c565b90508181036080830152611e3c818561145c565b9050611e4b60a0830184611a00565b97965050505050505056fea26469706673582212205a3affa6b50a6d5b6d178a44f542e060c93f9bb02b91b02a3ab742d1aea4e06564736f6c634300080d0033",
  "immutableReferences": {},
  "source": "// SPDX-License-Identifier: GPL-3.0\r\npragma solidity >=0.8.0 <0.9.0;\r\ncontract Registration{\r\n  address YOK;\r\n  address TOBB;\r\n  enum Unvan { DR, AS_PROF, PROF,MD }\r\n  struct Teacher\r\n    {\r\n      bool status;\r\n      string university;\r\n      string department;\r\n      Unvan unvan; \r\n      string name;\r\n      string surname;\r\n    }\r\n   struct  Student\r\n    {\r\n      bool status;\r\n      string university;\r\n      string department;\r\n      string name;\r\n      string surname;\r\n    }\r\n   struct Company\r\n    {\r\n      bool status;\r\n      string country;\r\n      uint identityNumber;\r\n      string name;\r\n    }\r\n    \r\n    mapping(address=>Teacher) public teachers;\r\n    mapping(address=>Company) public  companies;\r\n    mapping(address=>Student) public students;\r\n\r\n    // mapping(address=>bool) public isTeacher;\r\n    // mapping(address=>bool) public isCompany;\r\n    // mapping(address=>bool) public isStudent;\r\n\r\n    event StudentRegisteredLog(address _studentAddress,string  _name,string  _surname,string  _department,string  _university);\r\n    event TeacherRegisteredLog(address _teacherAddress,string  _name,string  _surname,string  _department,string  _university,Unvan _unvan);\r\n    event CompanyRegisteredLog(address _companyAddress,string  _name, uint _identityNumber,string  _country);\r\n\r\n    constructor (address yok,address tobb){\r\n        YOK=yok;\r\n        TOBB=tobb;\r\n    }\r\n    \r\n    modifier onlyYOK{\r\n      require(msg.sender == YOK,\r\n      \"Sadece YOK bu islemi yapabilir.\"\r\n      );\r\n      _;\r\n    }    \r\n    \r\n    modifier onlyTOBB{\r\n      require(msg.sender == TOBB,\r\n      \"Sadece TOBB bu islemi yapabilir.\"\r\n      );\r\n      _;\r\n    }    \r\n\r\n     function isStudent(address _address) public view returns(bool){\r\n        return students[_address].status;\r\n    }\r\n         function isTeacher(address _address) public view returns(bool){\r\n        return teachers[_address].status;\r\n    }\r\n         function isCompany(address _address) public view returns(bool){\r\n        return companies[_address].status;\r\n    }\r\n  function registerStudent(address _studentAddress,string memory _name,string memory _surname,string memory _department,string memory _university) \r\n  public onlyYOK{\r\n        require(!students[_studentAddress].status,\r\n            \"Student exists already\"\r\n            );\r\n            \r\n        students[_studentAddress].status=true;\r\n        students[_studentAddress].name=_name;\r\n        students[_studentAddress].surname=_surname;\r\n        students[_studentAddress].university=_university;\r\n        students[_studentAddress].department=_department;\r\n        emit StudentRegisteredLog( _studentAddress,  _name,  _surname,  _department,  _university);\r\n    }\r\n\r\n     function registerTeacher(address _teacherAddress,string memory _name,string memory _surname,string memory _department,string memory _university,Unvan _unvan) \r\n  public onlyYOK{\r\n        require(!teachers[_teacherAddress].status,\r\n            \"Teacher exists already\"\r\n            );\r\n            \r\n        teachers[_teacherAddress].status=true;\r\n        teachers[_teacherAddress].unvan=_unvan;\r\n        teachers[_teacherAddress].name=_name;\r\n        teachers[_teacherAddress].surname=_surname;\r\n        teachers[_teacherAddress].university=_university;\r\n        teachers[_teacherAddress].department=_department;\r\n\r\n        emit TeacherRegisteredLog( _teacherAddress,  _name,  _surname,  _department,  _university, _unvan);\r\n    }\r\n  function registerCompany(address _companyAddress,string memory _name, uint _identityNumber,string memory _country) \r\n  public onlyTOBB{\r\n        require(!companies[_companyAddress].status,\r\n            \"Company exists already\"\r\n            );\r\n            \r\n        companies[_companyAddress].status=true;\r\n         companies[_companyAddress].name=_name;\r\n         companies[_companyAddress].country=_country;\r\n        companies[_companyAddress].identityNumber=_identityNumber;\r\n\r\n        emit CompanyRegisteredLog( _companyAddress,  _name,  _identityNumber,  _country);\r\n       \r\n    }\r\n}\r\n\r\n",
  "sourcePath": "D:\\dapps\\refrenceLetter\\contracts\\Registration.sol",
  "compiler": {
    "name": "solc",
    "version": "0.8.13+commit.abaa5c0e.Emscripten.clang"
  },
  "schemaVersion": "3.4.7",
  "updatedAt": "2022-04-30T14:06:12.652Z",
  "devdoc": {
    "kind": "dev",
    "methods": {},
    "version": 1
  },
  "userdoc": {
    "kind": "user",
    "methods": {},
    "version": 1
  }
}