{
  "contractName": "Registration",
  "abi": [
    {
      "inputs": [
        {
          "internalType": "address",
          "name": "_yok",
          "type": "address"
        },
        {
          "internalType": "address",
          "name": "_tobb",
          "type": "address"
        },
        {
          "internalType": "address",
          "name": "_cb",
          "type": "address"
        }
      ],
      "stateMutability": "nonpayable",
      "type": "constructor"
    },
    {
      "anonymous": false,
      "inputs": [
        {
          "indexed": false,
          "internalType": "address",
          "name": "_companyAddress",
          "type": "address"
        },
        {
          "indexed": false,
          "internalType": "string",
          "name": "_name",
          "type": "string"
        },
        {
          "indexed": false,
          "internalType": "uint256",
          "name": "_identityNumber",
          "type": "uint256"
        },
        {
          "indexed": false,
          "internalType": "string",
          "name": "_country",
          "type": "string"
        }
      ],
      "name": "CompanyRegisteredLog",
      "type": "event"
    },
    {
      "anonymous": false,
      "inputs": [
        {
          "indexed": false,
          "internalType": "address",
          "name": "_institutionAddress",
          "type": "address"
        },
        {
          "indexed": false,
          "internalType": "string",
          "name": "_name",
          "type": "string"
        }
      ],
      "name": "PublicInstitutionRegisteredLog",
      "type": "event"
    },
    {
      "anonymous": false,
      "inputs": [
        {
          "indexed": false,
          "internalType": "address",
          "name": "_studentAddress",
          "type": "address"
        },
        {
          "indexed": false,
          "internalType": "string",
          "name": "_name",
          "type": "string"
        },
        {
          "indexed": false,
          "internalType": "string",
          "name": "_surname",
          "type": "string"
        },
        {
          "indexed": false,
          "internalType": "string",
          "name": "_department",
          "type": "string"
        },
        {
          "indexed": false,
          "internalType": "string",
          "name": "_university",
          "type": "string"
        }
      ],
      "name": "StudentRegisteredLog",
      "type": "event"
    },
    {
      "anonymous": false,
      "inputs": [
        {
          "indexed": false,
          "internalType": "address",
          "name": "_teacherAddress",
          "type": "address"
        },
        {
          "indexed": false,
          "internalType": "string",
          "name": "_name",
          "type": "string"
        },
        {
          "indexed": false,
          "internalType": "string",
          "name": "_surname",
          "type": "string"
        },
        {
          "indexed": false,
          "internalType": "string",
          "name": "_department",
          "type": "string"
        },
        {
          "indexed": false,
          "internalType": "string",
          "name": "_university",
          "type": "string"
        },
        {
          "indexed": false,
          "internalType": "enum Registration.Unvan",
          "name": "_unvan",
          "type": "uint8"
        }
      ],
      "name": "TeacherRegisteredLog",
      "type": "event"
    },
    {
      "inputs": [
        {
          "internalType": "address",
          "name": "",
          "type": "address"
        }
      ],
      "name": "companies",
      "outputs": [
        {
          "internalType": "bool",
          "name": "status",
          "type": "bool"
        },
        {
          "internalType": "string",
          "name": "country",
          "type": "string"
        },
        {
          "internalType": "uint256",
          "name": "identityNumber",
          "type": "uint256"
        },
        {
          "internalType": "string",
          "name": "name",
          "type": "string"
        }
      ],
      "stateMutability": "view",
      "type": "function"
    },
    {
      "inputs": [
        {
          "internalType": "address",
          "name": "",
          "type": "address"
        }
      ],
      "name": "publicInstitutions",
      "outputs": [
        {
          "internalType": "bool",
          "name": "status",
          "type": "bool"
        },
        {
          "internalType": "string",
          "name": "name",
          "type": "string"
        }
      ],
      "stateMutability": "view",
      "type": "function"
    },
    {
      "inputs": [
        {
          "internalType": "address",
          "name": "",
          "type": "address"
        }
      ],
      "name": "students",
      "outputs": [
        {
          "internalType": "bool",
          "name": "status",
          "type": "bool"
        },
        {
          "internalType": "string",
          "name": "university",
          "type": "string"
        },
        {
          "internalType": "string",
          "name": "department",
          "type": "string"
        },
        {
          "internalType": "string",
          "name": "name",
          "type": "string"
        },
        {
          "internalType": "string",
          "name": "surname",
          "type": "string"
        }
      ],
      "stateMutability": "view",
      "type": "function"
    },
    {
      "inputs": [
        {
          "internalType": "address",
          "name": "",
          "type": "address"
        }
      ],
      "name": "teachers",
      "outputs": [
        {
          "internalType": "bool",
          "name": "status",
          "type": "bool"
        },
        {
          "internalType": "string",
          "name": "university",
          "type": "string"
        },
        {
          "internalType": "string",
          "name": "department",
          "type": "string"
        },
        {
          "internalType": "enum Registration.Unvan",
          "name": "unvan",
          "type": "uint8"
        },
        {
          "internalType": "string",
          "name": "name",
          "type": "string"
        },
        {
          "internalType": "string",
          "name": "surname",
          "type": "string"
        }
      ],
      "stateMutability": "view",
      "type": "function"
    },
    {
      "inputs": [
        {
          "internalType": "address",
          "name": "_address",
          "type": "address"
        }
      ],
      "name": "isStudent",
      "outputs": [
        {
          "internalType": "bool",
          "name": "",
          "type": "bool"
        }
      ],
      "stateMutability": "view",
      "type": "function"
    },
    {
      "inputs": [
        {
          "internalType": "address",
          "name": "_address",
          "type": "address"
        }
      ],
      "name": "isTeacher",
      "outputs": [
        {
          "internalType": "bool",
          "name": "",
          "type": "bool"
        }
      ],
      "stateMutability": "view",
      "type": "function"
    },
    {
      "inputs": [
        {
          "internalType": "address",
          "name": "_address",
          "type": "address"
        }
      ],
      "name": "isCompany",
      "outputs": [
        {
          "internalType": "bool",
          "name": "",
          "type": "bool"
        }
      ],
      "stateMutability": "view",
      "type": "function"
    },
    {
      "inputs": [
        {
          "internalType": "address",
          "name": "_address",
          "type": "address"
        }
      ],
      "name": "isPublicInstitution",
      "outputs": [
        {
          "internalType": "bool",
          "name": "",
          "type": "bool"
        }
      ],
      "stateMutability": "view",
      "type": "function"
    },
    {
      "inputs": [
        {
          "internalType": "address",
          "name": "_address",
          "type": "address"
        }
      ],
      "name": "isRecipient",
      "outputs": [
        {
          "internalType": "bool",
          "name": "",
          "type": "bool"
        }
      ],
      "stateMutability": "view",
      "type": "function"
    },
    {
      "inputs": [
        {
          "internalType": "address",
          "name": "_studentAddress",
          "type": "address"
        },
        {
          "internalType": "string",
          "name": "_name",
          "type": "string"
        },
        {
          "internalType": "string",
          "name": "_surname",
          "type": "string"
        },
        {
          "internalType": "string",
          "name": "_department",
          "type": "string"
        },
        {
          "internalType": "string",
          "name": "_university",
          "type": "string"
        }
      ],
      "name": "registerStudent",
      "outputs": [],
      "stateMutability": "nonpayable",
      "type": "function"
    },
    {
      "inputs": [
        {
          "internalType": "address",
          "name": "_teacherAddress",
          "type": "address"
        },
        {
          "internalType": "string",
          "name": "_name",
          "type": "string"
        },
        {
          "internalType": "string",
          "name": "_surname",
          "type": "string"
        },
        {
          "internalType": "string",
          "name": "_department",
          "type": "string"
        },
        {
          "internalType": "string",
          "name": "_university",
          "type": "string"
        },
        {
          "internalType": "enum Registration.Unvan",
          "name": "_unvan",
          "type": "uint8"
        }
      ],
      "name": "registerTeacher",
      "outputs": [],
      "stateMutability": "nonpayable",
      "type": "function"
    },
    {
      "inputs": [
        {
          "internalType": "address",
          "name": "_companyAddress",
          "type": "address"
        },
        {
          "internalType": "string",
          "name": "_name",
          "type": "string"
        },
        {
          "internalType": "uint256",
          "name": "_identityNumber",
          "type": "uint256"
        },
        {
          "internalType": "string",
          "name": "_country",
          "type": "string"
        }
      ],
      "name": "registerCompany",
      "outputs": [],
      "stateMutability": "nonpayable",
      "type": "function"
    },
    {
      "inputs": [
        {
          "internalType": "address",
          "name": "_institutionAddress",
          "type": "address"
        },
        {
          "internalType": "string",
          "name": "_name",
          "type": "string"
        }
      ],
      "name": "registerPublicInstitution",
      "outputs": [],
      "stateMutability": "nonpayable",
      "type": "function"
    }
  ],
  "bytecode": "0x60806040523480156200001157600080fd5b50604051620026d8380380620026d883398181016040528101906200003791906200016c565b826000806101000a81548173ffffffffffffffffffffffffffffffffffffffff021916908373ffffffffffffffffffffffffffffffffffffffff16021790555081600160006101000a81548173ffffffffffffffffffffffffffffffffffffffff021916908373ffffffffffffffffffffffffffffffffffffffff16021790555080600260006101000a81548173ffffffffffffffffffffffffffffffffffffffff021916908373ffffffffffffffffffffffffffffffffffffffff160217905550505050620001c8565b600080fd5b600073ffffffffffffffffffffffffffffffffffffffff82169050919050565b6000620001348262000107565b9050919050565b620001468162000127565b81146200015257600080fd5b50565b60008151905062000166816200013b565b92915050565b60008060006060848603121562000188576200018762000102565b5b6000620001988682870162000155565b9350506020620001ab8682870162000155565b9250506040620001be8682870162000155565b9150509250925092565b61250080620001d86000396000f3fe608060405234801561001057600080fd5b50600436106100cf5760003560e01c8063a0406ce21161008c578063aec37eb311610066578063aec37eb314610250578063b7af520f14610280578063cd7047cb1461029c578063f0a47f78146102cc576100cf565b8063a0406ce2146101d0578063a67428f914610200578063a6c807a91461021c576100cf565b8063355e6ce8146100d45780634ed30fb4146101075780635817e9d814610138578063651ab5601461015457806382f7d392146101705780638c5143ea146101a0575b600080fd5b6100ee60048036038101906100e9919061186e565b610301565b6040516100fe9493929190611968565b60405180910390f35b610121600480360381019061011c919061186e565b61044e565b60405161012f9291906119bb565b60405180910390f35b610152600480360381019061014d9190611b20565b610507565b005b61016e60048036038101906101699190611c37565b610822565b005b61018a6004803603810190610185919061186e565b610ad5565b6040516101979190611cd6565b60405180910390f35b6101ba60048036038101906101b5919061186e565b610b2e565b6040516101c79190611cd6565b60405180910390f35b6101ea60048036038101906101e5919061186e565b610bde565b6040516101f79190611cd6565b60405180910390f35b61021a60048036038101906102159190611cf1565b610c37565b005b6102366004803603810190610231919061186e565b610e46565b604051610247959493929190611d4d565b60405180910390f35b61026a6004803603810190610265919061186e565b6110a9565b6040516102779190611cd6565b60405180910390f35b61029a60048036038101906102959190611de1565b611102565b005b6102b660048036038101906102b1919061186e565b61148a565b6040516102c39190611cd6565b60405180910390f35b6102e660048036038101906102e1919061186e565b6114e3565b6040516102f896959493929190611f55565b60405180910390f35b60046020528060005260406000206000915090508060000160009054906101000a900460ff169080600101805461033790612001565b80601f016020809104026020016040519081016040528092919081815260200182805461036390612001565b80156103b05780601f10610385576101008083540402835291602001916103b0565b820191906000526020600020905b81548152906001019060200180831161039357829003601f168201915b5050505050908060020154908060030180546103cb90612001565b80601f01602080910402602001604051908101604052809291908181526020018280546103f790612001565b80156104445780601f1061041957610100808354040283529160200191610444565b820191906000526020600020905b81548152906001019060200180831161042757829003601f168201915b5050505050905084565b60056020528060005260406000206000915090508060000160009054906101000a900460ff169080600101805461048490612001565b80601f01602080910402602001604051908101604052809291908181526020018280546104b090612001565b80156104fd5780601f106104d2576101008083540402835291602001916104fd565b820191906000526020600020905b8154815290600101906020018083116104e057829003601f168201915b5050505050905082565b60008054906101000a900473ffffffffffffffffffffffffffffffffffffffff1673ffffffffffffffffffffffffffffffffffffffff163373ffffffffffffffffffffffffffffffffffffffff1614610595576040517f08c379a000000000000000000000000000000000000000000000000000000000815260040161058c9061207e565b60405180910390fd5b600660008673ffffffffffffffffffffffffffffffffffffffff1673ffffffffffffffffffffffffffffffffffffffff16815260200190815260200160002060000160009054906101000a900460ff1615610625576040517f08c379a000000000000000000000000000000000000000000000000000000000815260040161061c906120ea565b60405180910390fd5b6001600660008773ffffffffffffffffffffffffffffffffffffffff1673ffffffffffffffffffffffffffffffffffffffff16815260200190815260200160002060000160006101000a81548160ff02191690831515021790555083600660008773ffffffffffffffffffffffffffffffffffffffff1673ffffffffffffffffffffffffffffffffffffffff16815260200190815260200160002060030190805190602001906106d6929190611759565b5082600660008773ffffffffffffffffffffffffffffffffffffffff1673ffffffffffffffffffffffffffffffffffffffff168152602001908152602001600020600401908051906020019061072d929190611759565b5080600660008773ffffffffffffffffffffffffffffffffffffffff1673ffffffffffffffffffffffffffffffffffffffff1681526020019081526020016000206001019080519060200190610784929190611759565b5081600660008773ffffffffffffffffffffffffffffffffffffffff1673ffffffffffffffffffffffffffffffffffffffff16815260200190815260200160002060020190805190602001906107db929190611759565b507f13f441afac2c125ba7988aaa6d3cfa2a7bd1e299b6a65420607dff92271d0a368585858585604051610813959493929190612119565b60405180910390a15050505050565b600160009054906101000a900473ffffffffffffffffffffffffffffffffffffffff1673ffffffffffffffffffffffffffffffffffffffff163373ffffffffffffffffffffffffffffffffffffffff16146108b2576040517f08c379a00000000000000000000000000000000000000000000000000000000081526004016108a9906121d4565b60405180910390fd5b600460008573ffffffffffffffffffffffffffffffffffffffff1673ffffffffffffffffffffffffffffffffffffffff16815260200190815260200160002060000160009054906101000a900460ff1615610942576040517f08c379a000000000000000000000000000000000000000000000000000000000815260040161093990612240565b60405180910390fd5b6001600460008673ffffffffffffffffffffffffffffffffffffffff1673ffffffffffffffffffffffffffffffffffffffff16815260200190815260200160002060000160006101000a81548160ff02191690831515021790555082600460008673ffffffffffffffffffffffffffffffffffffffff1673ffffffffffffffffffffffffffffffffffffffff16815260200190815260200160002060030190805190602001906109f3929190611759565b5080600460008673ffffffffffffffffffffffffffffffffffffffff1673ffffffffffffffffffffffffffffffffffffffff1681526020019081526020016000206001019080519060200190610a4a929190611759565b5081600460008673ffffffffffffffffffffffffffffffffffffffff1673ffffffffffffffffffffffffffffffffffffffff168152602001908152602001600020600201819055507fd9ebdc6ce92cfdfcf83b357e9e6b94fe6ba1f1696022fd5de9c8600e9db4a1a784848484604051610ac79493929190612260565b60405180910390a150505050565b6000600660008373ffffffffffffffffffffffffffffffffffffffff1673ffffffffffffffffffffffffffffffffffffffff16815260200190815260200160002060000160009054906101000a900460ff169050919050565b6000600460008373ffffffffffffffffffffffffffffffffffffffff1673ffffffffffffffffffffffffffffffffffffffff16815260200190815260200160002060000160009054906101000a900460ff1680610bd75750600560008373ffffffffffffffffffffffffffffffffffffffff1673ffffffffffffffffffffffffffffffffffffffff16815260200190815260200160002060000160009054906101000a900460ff165b9050919050565b6000600460008373ffffffffffffffffffffffffffffffffffffffff1673ffffffffffffffffffffffffffffffffffffffff16815260200190815260200160002060000160009054906101000a900460ff169050919050565b600260009054906101000a900473ffffffffffffffffffffffffffffffffffffffff1673ffffffffffffffffffffffffffffffffffffffff163373ffffffffffffffffffffffffffffffffffffffff1614610cc7576040517f08c379a0000000000000000000000000000000000000000000000000000000008152600401610cbe906122ff565b60405180910390fd5b600560008373ffffffffffffffffffffffffffffffffffffffff1673ffffffffffffffffffffffffffffffffffffffff16815260200190815260200160002060000160009054906101000a900460ff1615610d57576040517f08c379a0000000000000000000000000000000000000000000000000000000008152600401610d4e90612391565b60405180910390fd5b6001600560008473ffffffffffffffffffffffffffffffffffffffff1673ffffffffffffffffffffffffffffffffffffffff16815260200190815260200160002060000160006101000a81548160ff02191690831515021790555080600560008473ffffffffffffffffffffffffffffffffffffffff1673ffffffffffffffffffffffffffffffffffffffff1681526020019081526020016000206001019080519060200190610e08929190611759565b507fb1d00272c7b8d70948040aa525a18b1214f7357b9ca7bafcecef902f1f2282b78282604051610e3a9291906123b1565b60405180910390a15050565b60066020528060005260406000206000915090508060000160009054906101000a900460ff1690806001018054610e7c90612001565b80601f0160208091040260200160405190810160405280929190818152602001828054610ea890612001565b8015610ef55780601f10610eca57610100808354040283529160200191610ef5565b820191906000526020600020905b815481529060010190602001808311610ed857829003601f168201915b505050505090806002018054610f0a90612001565b80601f0160208091040260200160405190810160405280929190818152602001828054610f3690612001565b8015610f835780601f10610f5857610100808354040283529160200191610f83565b820191906000526020600020905b815481529060010190602001808311610f6657829003601f168201915b505050505090806003018054610f9890612001565b80601f0160208091040260200160405190810160405280929190818152602001828054610fc490612001565b80156110115780601f10610fe657610100808354040283529160200191611011565b820191906000526020600020905b815481529060010190602001808311610ff457829003601f168201915b50505050509080600401805461102690612001565b80601f016020809104026020016040519081016040528092919081815260200182805461105290612001565b801561109f5780601f106110745761010080835404028352916020019161109f565b820191906000526020600020905b81548152906001019060200180831161108257829003601f168201915b5050505050905085565b6000600360008373ffffffffffffffffffffffffffffffffffffffff1673ffffffffffffffffffffffffffffffffffffffff16815260200190815260200160002060000160009054906101000a900460ff169050919050565b60008054906101000a900473ffffffffffffffffffffffffffffffffffffffff1673ffffffffffffffffffffffffffffffffffffffff163373ffffffffffffffffffffffffffffffffffffffff1614611190576040517f08c379a00000000000000000000000000000000000000000000000000000000081526004016111879061207e565b60405180910390fd5b600360008773ffffffffffffffffffffffffffffffffffffffff1673ffffffffffffffffffffffffffffffffffffffff16815260200190815260200160002060000160009054906101000a900460ff1615611220576040517f08c379a00000000000000000000000000000000000000000000000000000000081526004016112179061242d565b60405180910390fd5b6001600360008873ffffffffffffffffffffffffffffffffffffffff1673ffffffffffffffffffffffffffffffffffffffff16815260200190815260200160002060000160006101000a81548160ff02191690831515021790555080600360008873ffffffffffffffffffffffffffffffffffffffff1673ffffffffffffffffffffffffffffffffffffffff16815260200190815260200160002060030160006101000a81548160ff021916908360038111156112e0576112df611ede565b5b021790555084600360008873ffffffffffffffffffffffffffffffffffffffff1673ffffffffffffffffffffffffffffffffffffffff168152602001908152602001600020600401908051906020019061133b929190611759565b5083600360008873ffffffffffffffffffffffffffffffffffffffff1673ffffffffffffffffffffffffffffffffffffffff1681526020019081526020016000206005019080519060200190611392929190611759565b5081600360008873ffffffffffffffffffffffffffffffffffffffff1673ffffffffffffffffffffffffffffffffffffffff16815260200190815260200160002060010190805190602001906113e9929190611759565b5082600360008873ffffffffffffffffffffffffffffffffffffffff1673ffffffffffffffffffffffffffffffffffffffff1681526020019081526020016000206002019080519060200190611440929190611759565b507ff95bfc7ae68c507e95bd2f01348aa3231b2ba812f97f95eb301f45937e7c7f0386868686868660405161147a9695949392919061244d565b60405180910390a1505050505050565b6000600560008373ffffffffffffffffffffffffffffffffffffffff1673ffffffffffffffffffffffffffffffffffffffff16815260200190815260200160002060000160009054906101000a900460ff169050919050565b60036020528060005260406000206000915090508060000160009054906101000a900460ff169080600101805461151990612001565b80601f016020809104026020016040519081016040528092919081815260200182805461154590612001565b80156115925780601f1061156757610100808354040283529160200191611592565b820191906000526020600020905b81548152906001019060200180831161157557829003601f168201915b5050505050908060020180546115a790612001565b80601f01602080910402602001604051908101604052809291908181526020018280546115d390612001565b80156116205780601f106115f557610100808354040283529160200191611620565b820191906000526020600020905b81548152906001019060200180831161160357829003601f168201915b5050505050908060030160009054906101000a900460ff169080600401805461164890612001565b80601f016020809104026020016040519081016040528092919081815260200182805461167490612001565b80156116c15780601f10611696576101008083540402835291602001916116c1565b820191906000526020600020905b8154815290600101906020018083116116a457829003601f168201915b5050505050908060050180546116d690612001565b80601f016020809104026020016040519081016040528092919081815260200182805461170290612001565b801561174f5780601f106117245761010080835404028352916020019161174f565b820191906000526020600020905b81548152906001019060200180831161173257829003601f168201915b5050505050905086565b82805461176590612001565b90600052602060002090601f01602090048101928261178757600085556117ce565b82601f106117a057805160ff19168380011785556117ce565b828001600101855582156117ce579182015b828111156117cd5782518255916020019190600101906117b2565b5b5090506117db91906117df565b5090565b5b808211156117f85760008160009055506001016117e0565b5090565b6000604051905090565b600080fd5b600080fd5b600073ffffffffffffffffffffffffffffffffffffffff82169050919050565b600061183b82611810565b9050919050565b61184b81611830565b811461185657600080fd5b50565b60008135905061186881611842565b92915050565b60006020828403121561188457611883611806565b5b600061189284828501611859565b91505092915050565b60008115159050919050565b6118b08161189b565b82525050565b600081519050919050565b600082825260208201905092915050565b60005b838110156118f05780820151818401526020810190506118d5565b838111156118ff576000848401525b50505050565b6000601f19601f8301169050919050565b6000611921826118b6565b61192b81856118c1565b935061193b8185602086016118d2565b61194481611905565b840191505092915050565b6000819050919050565b6119628161194f565b82525050565b600060808201905061197d60008301876118a7565b818103602083015261198f8186611916565b905061199e6040830185611959565b81810360608301526119b08184611916565b905095945050505050565b60006040820190506119d060008301856118a7565b81810360208301526119e28184611916565b90509392505050565b600080fd5b600080fd5b7f4e487b7100000000000000000000000000000000000000000000000000000000600052604160045260246000fd5b611a2d82611905565b810181811067ffffffffffffffff82111715611a4c57611a4b6119f5565b5b80604052505050565b6000611a5f6117fc565b9050611a6b8282611a24565b919050565b600067ffffffffffffffff821115611a8b57611a8a6119f5565b5b611a9482611905565b9050602081019050919050565b82818337600083830152505050565b6000611ac3611abe84611a70565b611a55565b905082815260208101848484011115611adf57611ade6119f0565b5b611aea848285611aa1565b509392505050565b600082601f830112611b0757611b066119eb565b5b8135611b17848260208601611ab0565b91505092915050565b600080600080600060a08688031215611b3c57611b3b611806565b5b6000611b4a88828901611859565b955050602086013567ffffffffffffffff811115611b6b57611b6a61180b565b5b611b7788828901611af2565b945050604086013567ffffffffffffffff811115611b9857611b9761180b565b5b611ba488828901611af2565b935050606086013567ffffffffffffffff811115611bc557611bc461180b565b5b611bd188828901611af2565b925050608086013567ffffffffffffffff811115611bf257611bf161180b565b5b611bfe88828901611af2565b9150509295509295909350565b611c148161194f565b8114611c1f57600080fd5b50565b600081359050611c3181611c0b565b92915050565b60008060008060808587031215611c5157611c50611806565b5b6000611c5f87828801611859565b945050602085013567ffffffffffffffff811115611c8057611c7f61180b565b5b611c8c87828801611af2565b9350506040611c9d87828801611c22565b925050606085013567ffffffffffffffff811115611cbe57611cbd61180b565b5b611cca87828801611af2565b91505092959194509250565b6000602082019050611ceb60008301846118a7565b92915050565b60008060408385031215611d0857611d07611806565b5b6000611d1685828601611859565b925050602083013567ffffffffffffffff811115611d3757611d3661180b565b5b611d4385828601611af2565b9150509250929050565b600060a082019050611d6260008301886118a7565b8181036020830152611d748187611916565b90508181036040830152611d888186611916565b90508181036060830152611d9c8185611916565b90508181036080830152611db08184611916565b90509695505050505050565b60048110611dc957600080fd5b50565b600081359050611ddb81611dbc565b92915050565b60008060008060008060c08789031215611dfe57611dfd611806565b5b6000611e0c89828a01611859565b965050602087013567ffffffffffffffff811115611e2d57611e2c61180b565b5b611e3989828a01611af2565b955050604087013567ffffffffffffffff811115611e5a57611e5961180b565b5b611e6689828a01611af2565b945050606087013567ffffffffffffffff811115611e8757611e8661180b565b5b611e9389828a01611af2565b935050608087013567ffffffffffffffff811115611eb457611eb361180b565b5b611ec089828a01611af2565b92505060a0611ed189828a01611dcc565b9150509295509295509295565b7f4e487b7100000000000000000000000000000000000000000000000000000000600052602160045260246000fd5b60048110611f1e57611f1d611ede565b5b50565b6000819050611f2f82611f0d565b919050565b6000611f3f82611f21565b9050919050565b611f4f81611f34565b82525050565b600060c082019050611f6a60008301896118a7565b8181036020830152611f7c8188611916565b90508181036040830152611f908187611916565b9050611f9f6060830186611f46565b8181036080830152611fb18185611916565b905081810360a0830152611fc58184611916565b9050979650505050505050565b7f4e487b7100000000000000000000000000000000000000000000000000000000600052602260045260246000fd5b6000600282049050600182168061201957607f821691505b60208210810361202c5761202b611fd2565b5b50919050565b7f53616465636520594f4b2062752069736c656d69207961706162696c69722e00600082015250565b6000612068601f836118c1565b915061207382612032565b602082019050919050565b600060208201905081810360008301526120978161205b565b9050919050565b7f53747564656e742065786973747320616c726561647900000000000000000000600082015250565b60006120d46016836118c1565b91506120df8261209e565b602082019050919050565b60006020820190508181036000830152612103816120c7565b9050919050565b61211381611830565b82525050565b600060a08201905061212e600083018861210a565b81810360208301526121408187611916565b905081810360408301526121548186611916565b905081810360608301526121688185611916565b9050818103608083015261217c8184611916565b90509695505050505050565b7f53616465636520544f42422062752069736c656d69207961706162696c69722e600082015250565b60006121be6020836118c1565b91506121c982612188565b602082019050919050565b600060208201905081810360008301526121ed816121b1565b9050919050565b7f436f6d70616e792065786973747320616c726561647900000000000000000000600082015250565b600061222a6016836118c1565b9150612235826121f4565b602082019050919050565b600060208201905081810360008301526122598161221d565b9050919050565b6000608082019050612275600083018761210a565b81810360208301526122878186611916565b90506122966040830185611959565b81810360608301526122a88184611916565b905095945050505050565b7f5361646563652043422062752069736c656d69207961706162696c69722e0000600082015250565b60006122e9601e836118c1565b91506122f4826122b3565b602082019050919050565b60006020820190508181036000830152612318816122dc565b9050919050565b7f5075626c696320496e737469747574696f6e2065786973747320616c7265616460008201527f7900000000000000000000000000000000000000000000000000000000000000602082015250565b600061237b6021836118c1565b91506123868261231f565b604082019050919050565b600060208201905081810360008301526123aa8161236e565b9050919050565b60006040820190506123c6600083018561210a565b81810360208301526123d88184611916565b90509392505050565b7f546561636865722065786973747320616c726561647900000000000000000000600082015250565b60006124176016836118c1565b9150612422826123e1565b602082019050919050565b600060208201905081810360008301526124468161240a565b9050919050565b600060c082019050612462600083018961210a565b81810360208301526124748188611916565b905081810360408301526124888187611916565b9050818103606083015261249c8186611916565b905081810360808301526124b08185611916565b90506124bf60a0830184611f46565b97965050505050505056fea264697066735822122065f17e98022a408ab7d0392fa4b77a796cd77dd94f55915153fd5cb22efdac9b64736f6c634300080d0033",
  "immutableReferences": {},
  "source": "// SPDX-License-Identifier: GPL-3.0\r\npragma solidity >=0.8.0 <0.9.0;\r\ncontract Registration{\r\n  address YOK;\r\n  address TOBB;\r\n  address CB;\r\n  enum Unvan { DR, AS_PROF, PROF,MD }\r\n  struct Teacher\r\n    {\r\n      bool status;\r\n      string university;\r\n      string department;\r\n      Unvan unvan; \r\n      string name;\r\n      string surname;\r\n    }\r\n   struct  Student\r\n    {\r\n      bool status;\r\n      string university;\r\n      string department;\r\n      string name;\r\n      string surname;\r\n    }\r\n   struct Company\r\n    {\r\n      bool status;\r\n      string country;\r\n      uint identityNumber;\r\n      string name;\r\n    }\r\n     struct PublicInstitution\r\n    {\r\n      bool status;\r\n      string name;\r\n    }\r\n    mapping(address=>Teacher) public teachers;\r\n    mapping(address=>Company) public  companies;\r\n    mapping(address=>PublicInstitution) public publicInstitutions;\r\n    mapping(address=>Student) public students;\r\n\r\n    event StudentRegisteredLog(address _studentAddress,string  _name,string  _surname,string  _department,string  _university);\r\n    event TeacherRegisteredLog(address _teacherAddress,string  _name,string  _surname,string  _department,string  _university,Unvan _unvan);\r\n    event CompanyRegisteredLog(address _companyAddress,string  _name, uint _identityNumber,string  _country);\r\n    event PublicInstitutionRegisteredLog(address _institutionAddress,string  _name);\r\n\r\n    constructor (address _yok,address _tobb,address _cb){\r\n        YOK=_yok;\r\n        TOBB=_tobb;\r\n        CB=_cb;\r\n    }\r\n    \r\n    modifier onlyYOK{\r\n      require(msg.sender == YOK,\r\n      \"Sadece YOK bu islemi yapabilir.\"\r\n      );\r\n      _;\r\n    }    \r\n    \r\n    modifier onlyTOBB{\r\n      require(msg.sender == TOBB,\r\n      \"Sadece TOBB bu islemi yapabilir.\"\r\n      );\r\n      _;\r\n    }    \r\n    modifier onlyCB{\r\n      require(msg.sender == CB,\r\n      \"Sadece CB bu islemi yapabilir.\"\r\n      );\r\n      _;\r\n    }    \r\n\r\n     function isStudent(address _address) public view returns(bool){\r\n        return students[_address].status;\r\n    }\r\n      function isTeacher(address _address) public view returns(bool){\r\n        return teachers[_address].status;\r\n    }\r\n      function isCompany(address _address) public view returns(bool){\r\n        return companies[_address].status;\r\n    }\r\n      function isPublicInstitution(address _address) public view returns(bool){\r\n        return publicInstitutions[_address].status;\r\n    }\r\n      function isRecipient(address _address) public view returns(bool){\r\n        return companies[_address].status||publicInstitutions[_address].status;\r\n    }\r\n\r\n  function registerStudent(address _studentAddress,string memory _name,string memory _surname,string memory _department,string memory _university) \r\n  public onlyYOK{\r\n        require(!students[_studentAddress].status,\r\n            \"Student exists already\"\r\n            );\r\n            \r\n        students[_studentAddress].status=true;\r\n        students[_studentAddress].name=_name;\r\n        students[_studentAddress].surname=_surname;\r\n        students[_studentAddress].university=_university;\r\n        students[_studentAddress].department=_department;\r\n        emit StudentRegisteredLog( _studentAddress,  _name,  _surname,  _department,  _university);\r\n    }\r\n\r\n     function registerTeacher(address _teacherAddress,string memory _name,string memory _surname,string memory _department,string memory _university,Unvan _unvan) \r\n  public onlyYOK{\r\n        require(!teachers[_teacherAddress].status,\r\n            \"Teacher exists already\"\r\n            );\r\n            \r\n        teachers[_teacherAddress].status=true;\r\n        teachers[_teacherAddress].unvan=_unvan;\r\n        teachers[_teacherAddress].name=_name;\r\n        teachers[_teacherAddress].surname=_surname;\r\n        teachers[_teacherAddress].university=_university;\r\n        teachers[_teacherAddress].department=_department;\r\n\r\n        emit TeacherRegisteredLog( _teacherAddress,  _name,  _surname,  _department,  _university, _unvan);\r\n    }\r\n  function registerCompany(address _companyAddress,string memory _name, uint _identityNumber,string memory _country) \r\n  public onlyTOBB{\r\n        require(!companies[_companyAddress].status,\r\n            \"Company exists already\"\r\n            );\r\n            \r\n        companies[_companyAddress].status=true;\r\n         companies[_companyAddress].name=_name;\r\n         companies[_companyAddress].country=_country;\r\n        companies[_companyAddress].identityNumber=_identityNumber;\r\n\r\n        emit CompanyRegisteredLog( _companyAddress,  _name,  _identityNumber,  _country);\r\n       \r\n    }\r\n     function registerPublicInstitution(address _institutionAddress,string memory _name) \r\n     public onlyCB{\r\n        require(!publicInstitutions[_institutionAddress].status,\r\n            \"Public Institution exists already\"\r\n            );\r\n            \r\n        publicInstitutions[_institutionAddress].status=true;\r\n        publicInstitutions[_institutionAddress].name=_name;\r\n\r\n        emit PublicInstitutionRegisteredLog( _institutionAddress,  _name);\r\n       \r\n    }\r\n}\r\n\r\n",
  "sourcePath": "D:\\dapps\\refrenceLetter\\contracts\\Registration.sol",
  "compiler": {
    "name": "solc",
    "version": "0.8.13+commit.abaa5c0e.Emscripten.clang"
  },
  "schemaVersion": "3.4.7",
  "updatedAt": "2022-07-02T20:12:48.894Z",
  "devdoc": {
    "kind": "dev",
    "methods": {},
    "version": 1
  },
  "userdoc": {
    "kind": "user",
    "methods": {},
    "version": 1
  }
}